:020000040800F2
:1000000000500020910C0008B50B0008BB0B000845
:10001000C10B0008C70B0008CD0B00080000000052
:10002000000000000000000000000000D30B0008EA
:10003000DF0B000800000000EB0B0008F70B0008C6
:10004000D90C0008D90C0008D90C0008D90C0008FC
:10005000D90C0008D90C0008D90C0008D90C0008EC
:10006000D90C0008D90C0008D90C0008D90C0008DC
:10007000D90C0008D90C0008D90C0008D90C0008CC
:10008000D90C0008D90C0008D90C0008D90C0008BC
:10009000D90C0008D90C0008D90C0008D90C0008AC
:1000A000D90C0008D90C0008D90C0008D90C00089C
:1000B000050C0008D90C0008D90C0008D90C000860
:1000C000D90C0008D90C0008D90C0008D90C00087C
:1000D000D90C0008D90C0008D90C0008D90C00086C
:1000E000D90C0008D90C0008D90C00080000000049
:1000F0000000000000000000000000000000000000
:0C01000000000000000000005FF808F1A3
:10010C0010B5054C237833B9044B13B10448AFF345
:10011C0000800123237010BD7C0000200000000033
:10012C00FC24000808B5034B1BB103490348AFF38B
:10013C00008008BD0000000080000020FC240008A6
:10014C0080B500AF3C4B1B78032B72D801A252F840
:10015C0023F000BF710100088B0100081702000892
:10016C00D3010008002000F063F90346002B5BD09C
:10017C00314B01221A70314B00221A7054E00020CE
:10018C0000F056F90346002B11D12C4B1B78012B98
:10019C0006D1294B00221A70284B00221A7045E018
:1001AC00254B03221A70264B1E221A603EE00020BB
:1001BC0000F058F90346002B38D01F4B02221A705E
:1001CC0000F094F832E01E4B1B68002B04DD1C4B36
:1001DC001B68013B1A4A1360002000F029F9034602
:1001EC00002B08D0144B01221A7000F063F8134B4B
:1001FC0001221A701CE0124B1B68002B18D10E4BFD
:10020C0000221A7000F03EF812E0002000F010F905
:10021C000346002B05D1084B00221A70074B002215
:10022C001A7000F06DF804E000BF02E000BF00E0BF
:10023C0000BF00BF80BD00BF980000209A000020C6
:10024C009C00002080B582B000AF0346FB71FB79A7
:10025C0003F00103DBB21A464FF48061084801F049
:10026C0042F8FB795B08DBB203F00103DBB21A4600
:10027C001021034801F037F800BF0837BD4680BD98
:10028C00000C014080B500AF094B1B780133DAB28A
:10029C00074B1A70064B1B78032B02D9044B012217
:1002AC001A70034B1B781846FFF7CCFF00BF80BDBC
:1002BC009900002080B500AF20210A4801F02BF8EE
:1002CC00094B1B78002B03D1074B02221A7002E05A
:1002DC00054B00221A70044B1B781846FFF7B2FF2F
:1002EC0000BF80BD000801409900002080B500AF20
:1002FC002021024801F00FF800BF80BD000801402A
:10030C0080B500AF002000F093F80346002B1BD003
:10031C000F4B1B78002B19D00D4B1B780133DAB225
:10032C000B4B1A700A4B1B78032B02D9084B01227A
:10033C001A70074B1B781846FFF784FF0022142114
:10034C00044800F0F1F902E000BF00E000BF80BDFE
:10035C00990000200D03000880B582B000AF002387
:10036C007B6050E02C4A7B68134419782B4A7B68DD
:10037C0013440A461A700821294800F09DFF0346D1
:10038C001946254A7B6813440A461A70224A7B6830
:10039C0013441A7821497B680B441B789A4208D184
:1003AC001D4A7B68134419781E4A7B6813440A461D
:1003BC001A701C4A7B6813441B78002B16D11A4AFE
:1003CC007B6832F81330632B0AD8174A7B6832F8F3
:1003DC001330013399B2144A7B6822F813100FE0E2
:1003EC00124A7B68134401221A7009E00E4A7B689A
:1003FC00002122F813100D4A7B68134400221A7056
:10040C007B6801337B607B68002BABDD00BF00BFDA
:10041C000837BD4680BD00BF040000200800002046
:10042C00000C014000000020A4000020A0000020CF
:10043C0080B483B000AF0346FB71FB79002B01D075
:10044C00002307E0FB79064AD35C002B0CBF012389
:10045C000023DBB218460C37BD4680BC704700BF8A
:10046C000000002080B483B000AF0346FB71FB7921
:10047C00002B01D0FF2307E0FB79064AD35C012B4C
:10048C000CBF01230023DBB218460C37BD4680BCE1
:10049C00704700BFA000002080B500AF00F032F91B
:1004AC0000F016FC00F01AF800F0A0F800F052F87A
:1004BC00074801F075FB0A220A21064800F034F9BE
:1004CC000A220A21044800F02FF900F075FAFCE723
:1004DC00BC000020650300084D01000880B590B0F9
:1004EC0000AF07F1180328220021184601F034FF51
:1004FC003B1D00221A605A609A60DA601A6102236E
:10050C00BB610123BB621023FB6200237B6307F1F9
:10051C001803184600F018FF0346002B01D000F01A
:10052C00EBF80F237B600023BB600023FB600023F0
:10053C003B6100237B613B1D0021184601F084F9CF
:10054C000346002B01D000F0D7F800BF4037BD4662
:10055C0080BD000080B586B000AF07F10803002213
:10056C001A605A609A60DA603B4600221A605A6040
:10057C001D4B4FF080421A601B4B41F63F725A6084
:10058C00194B00229A60184B0922DA60164B002294
:10059C001A61154B00229A61134801F0B1FA034617
:1005AC00002B01D000F0A8F84FF48053BB6007F18A
:1005BC00080319460C4801F035FC0346002B01D00A
:1005CC0000F09AF800233B6000237B603B46194601
:1005DC00054801F017FE0346002B01D000F08CF803
:1005EC0000BF1837BD4680BDBC00002080B588B068
:1005FC0000AF07F1100300221A605A609A60DA60AB
:10060C00344B9B69334A43F010039361314B9B6924
:10061C0003F01003FB60FB682E4B9B692D4A43F0E3
:10062C00040393612B4B9B6903F00403BB60BB6811
:10063C00284B9B69274A43F008039361254B9B6920
:10064C0003F008037B607B6800222021224800F025
:10065C004AFE00224FF48261204800F044FE4FF421
:10066C0000533B6100237B610023BB6107F1100346
:10067C0019461B4800F09CFC20233B6101237B6145
:10068C000023BB610223FB6107F1100319461248DA
:10069C0000F08EFC4FF482633B6101237B610023ED
:1006AC00BB610223FB6107F1100319460B4800F0F4
:1006BC007FFC08233B6100237B610023BB6107F1B6
:1006CC0010031946054800F073FC00BF2037BD46E7
:1006DC0080BD00BF0010024000080140000C01402A
:1006EC000010014080B582B000AF786000F0B4F922
:1006FC0000BF0837BD4680BD80B400AF72B600BFE6
:10070C00FEE7000080B500AF042001F015FE0346A3
:10071C001A46044B1A60034B1B6800221A6000BF78
:10072C0080BD00BFA800002080B58AB000AFF86083
:10073C00B9607A602B4B1B68282B01D102234CE04B
:10074C00284B1B680133274A1360BB687B6200236C
:10075C0087F82330244B1B681B68FB610023BB61AB
:10076C0000237B6111E0FB691B685A68BB69134469
:10077C00BB61BB69BA689A420BD397F8233001333B
:10078C0087F82330FB695B68FB61FB69002BEAD1BE
:10079C0000E000BFFB69002B12D0BA69FB691B6833
:1007AC005B68D31A7B617B69BA68D31A7B62FB697D
:1007BC001B685968FB691B687A6A8A1A5A6003E0DD
:1007CC00BB69BA68D31A7B6297F823307A68796A66
:1007DC00F86800F00BF897F8233018462837BD4618
:1007EC0080BD00BFAC000020A800002080B588B000
:1007FC0000AFF860B9607A603B60082001F09CFDA6
:10080C0003467B617B69002B58D0142001F094FDCA
:10081C0003461A467B691A607B691B68002B03D15F
:10082C00786901F091FD4AE07B691B68FA681A60EF
:10083C007B691B68BA685A607B691B687A689A6026
:10084C007B691B6800221A737B691B683A681A6102
:10085C007B6900225A603B68002B09D1194B1B683D
:10086C001A687B695A60174B1B687A691A6022E018
:10087C00144B1B681B68FB610023BB6105E0FB6923
:10088C005B68FB61BB690133BB613B68013BBA69C7
:10089C009A4202DAFB69002BF1D1FB69002B07D0DD
:1008AC00FB695A687B695A60FB697A695A6002E095
:1008BC00786901F049FD00F003F900E000BF203732
:1008CC00BD4680BDA800002080B586B000AF0346B1
:1008DC00FB71374B1B681B687B610023FB60344B3F
:1008EC001B68002B04D0324B1B681B68002B01D1FA
:1008FC00022358E0FB79002B20D12D4B1B681B6881
:10090C00FB602B4B1B68FA6852681A60FB681B680B
:10091C00002B07D0FB681B68184601F015FDFB681F
:10092C0000221A60F86801F00FFD00F0C9F8214BA5
:10093C001B68013B1F4A1360012334E000233B6119
:10094C0005E07B695B687B613B6901333B617B69DB
:10095C00002B04D0FB79013B3A699A42F1DB7B69AD
:10096C00002B03D07B695B68002B01D102231AE0BA
:10097C007B695B68FB60FB681B68002B01D1022361
:10098C0011E0FB681B68184601F0DEFCFB680022D6
:10099C001A60FB685A687B695A60F86801F0D4FCED
:1009AC0000F08EF8012318461837BD4680BD00BFF5
:1009BC00A8000020AC00002080B584B000AF254B0F
:1009CC001B681B68002B40D0224B1B681B681B68E4
:1009DC001B7B002B39D01F4B1B681B681B681A7BB9
:1009EC001C4B1B681B681B68013AD2B21A7320E0BF
:1009FC00184B1B681B68FB60FB681B681B689847DF
:100A0C00FB681B689B68002B10D0FB681B681B687D
:100A1C00BB60FB681B689B687B600020FFF754FF82
:100A2C007A687968B868FFF77FFE02E00020FFF76C
:100A3C004BFF084B1B681B68002B06D0054B1B6833
:100A4C001B681B685B68002BD2D000BF1037BD46FB
:100A5C0080BD00BFA800002080B400AF174B1B68FE
:100A6C001B68002B25D0154B1B681B681B68002BC3
:100A7C001FD0124B1B681B681B685B68002B0CD1CA
:100A8C000E4B1B681B681B681A7B0C4B1B681B6886
:100A9C001B680132D2B21A730CE0084B1B681B683E
:100AAC001B685A68054B1B681B681B680A3A5A601E
:100ABC0000E000BFBD4680BC704700BFA80000200E
:100ACC0080B483B000AF00237B600B4B1B681B68AA
:100ADC003B6008E07B685A1C7A603A6812681361C4
:100AEC003B685B683B603B68002BF3D100BF00BFE9
:100AFC000C37BD4680BC7047A800002080B485B080
:100B0C0000AF154B9B69144A43F001039361124BE0
:100B1C009B6903F00103BB60BB680F4BDB690E4A9A
:100B2C0043F08053D3610C4BDB6903F080537B6043
:100B3C007B680A4B5B68FB60FB6823F0E063FB603F
:100B4C00FB6843F00073FB60044AFB68536000BF12
:100B5C001437BD4680BC70470010024000000140B5
:100B6C0080B584B000AF78607B681B68B3F1804FB0
:100B7C0013D10C4BDB690B4A43F00103D361094BD6
:100B8C00DB6903F00103FB60FB68002200211C20E1
:100B9C0000F0D7F91C2000F0F0F900BF1037BD466B
:100BAC0080BD00BF0010024080B400AFFEE780B4EF
:100BBC0000AFFEE780B400AFFEE780B400AFFEE705
:100BCC0080B400AFFEE780B400AF00BFBD4680BC70
:100BDC00704780B400AF00BFBD4680BC704780B486
:100BEC0000AF00BFBD4680BC704780B500AF00F0C1
:100BFC00B5F800BF80BD000080B500AF024801F021
:100C0C0021F800BF80BD00BFBC00002080B586B0BD
:100C1C0000AF7860144A154BD31A7B617B693B613A
:100C2C00134B1B68002B02D1114B124A1A60104B4C
:100C3C001A687B6813443A699A4207D201F052FB56
:100C4C0003460C221A604FF0FF3309E0084B1B6877
:100C5C00FB60074B1A687B681344054A1360FB68FA
:100C6C0018461837BD4680BD005000200004000017
:100C7C00B00000201801002080B400AF00BFBD46BA
:100C8C0080BC7047FFF7F8FF0B480C490C4A002357
:100C9C0002E0D458C4500433C4188C42F9D3094A26
:100CAC00094C002301E013600432A242FBD301F093
:100CBC001FFBFFF7F1FB7047000000207C000020B9
:100CCC00402500087C00002018010020FEE70000F1
:100CDC0080B500AF084B1B68074A43F01003136044
:100CEC00032000F023F90F2000F008F8FFF706FFAF
:100CFC000023184680BD00BF0020024080B582B0A2
:100D0C0000AF7860124B1A68124B1B7819464FF4DF
:100D1C007A73B3FBF1F3B2FBF3F3184600F03BF933
:100D2C000346002B01D001230EE07B680F2B0AD861
:100D3C00002279684FF0FF3000F003F9064A7B6817
:100D4C001360002300E0012318460837BD4680BD20
:100D5C000C000020140000201000002080B400AF14
:100D6C00054B1B781A46054B1B681344034A13604A
:100D7C0000BFBD4680BC7047140000200401002059
:100D8C0080B400AF024B1B681846BD4680BC704750
:100D9C000401002080B485B000AF78607B6803F05C
:100DAC000703FB600C4BDB68BB60BA684FF6FF03B4
:100DBC001340BB60FB681A02BB68134343F0BF636C
:100DCC0043F40033BB60044ABB68D36000BF1437E4
:100DDC00BD4680BC704700BF00ED00E080B400AFA2
:100DEC00044BDB681B0A03F007031846BD4680BCA6
:100DFC00704700BF00ED00E080B483B000AF034645
:100E0C00FB7197F90730002B0BDBFB7903F01F020A
:100E1C00064997F907305B09012000FA02F241F804
:100E2C00232000BF0C37BD4680BC704700E100E0BA
:100E3C0080B483B000AF03463960FB7197F907307B
:100E4C00002B0ADB3B68DAB20C4997F90730120128
:100E5C00D2B20B4483F800230AE03B68DAB20849AB
:100E6C00FB7903F00F03043B1201D2B20B441A7648
:100E7C0000BF0C37BD4680BC704700BF00E100E0EE
:100E8C0000ED00E080B489B000AFF860B9607A6022
:100E9C00FB6803F00703FB61FB69C3F10703042B39
:100EAC0028BF0423BB61FB690433062B02D9FB6901
:100EBC00033B00E000237B614FF0FF32BB6902FA79
:100ECC0003F3DA43BB681A407B699A404FF0FF3159
:100EDC007B6901FA03F3D9437B680B401343184633
:100EEC002437BD4680BC704780B582B000AF7860B7
:100EFC007B68013BB3F1807F01D301230FE00A4AE9
:100F0C007B68013B53600F214FF0FF30FFF790FFE0
:100F1C00054B00229A60044B07221A6000231846E6
:100F2C000837BD4680BD00BF10E000E080B582B040
:100F3C0000AF78607868FFF72DFF00BF0837BD461B
:100F4C0080BD80B586B000AF0346B9607A60FB7394
:100F5C0000237B61FFF742FF78617A68B968786992
:100F6C00FFF790FF024697F90F3011461846FFF72E
:100F7C005FFF00BF1837BD4680BD80B582B000AFA3
:100F8C000346FB7197F907301846FFF735FF00BF92
:100F9C000837BD4680BD80B582B000AF78607868F8
:100FAC00FFF7A2FF034618460837BD4680BD000078
:100FBC0080B48BB000AF7860396000237B62002373
:100FCC003B6269E101227B6A02FA03F3FB613B6835
:100FDC001B68FA691340BB61BA69FB699A4240F01D
:100FEC0058813B685B689A4A93425ED0984A934218
:100FFC0075D8984A934258D0964A93426FD8964ADD
:10100C00934252D0944A934269D8944A93424CD01A
:10101C00924A934263D8924A934246D0904A934262
:10102C005DD8122B2AD8122B59D801A252F823F0D2
:10103C00B710000891100008A3100008E510000874
:10104C00EB100008EB100008EB100008EB10000888
:10105C00EB100008EB100008EB100008EB10000878
:10106C00EB100008EB100008EB100008EB10000868
:10107C00EB10000899100008AD100008794A934253
:10108C0013D02CE03B68DB683B6229E03B68DB68F3
:10109C0004333B6224E03B68DB6808333B621FE0AF
:1010AC003B68DB680C333B621AE03B689B68002BA7
:1010BC0002D104233B6213E03B689B68012B05D1F2
:1010CC0008233B627B68FA691A6109E008233B62DA
:1010DC007B68FA695A6103E000233B6200E000BFC1
:1010EC00BB69FF2B01D87B6801E07B6804337B6113
:1010FC00BB69FF2B02D87B6A9B0002E07B6A083B32
:10110C009B003B617B691A680F213B6901FA03F371
:10111C00DB431A40396A3B6901FA03F31A437B69D2
:10112C001A603B685B6803F08053002B00F0B180C1
:10113C004D4B9B694C4A43F0010393614A4B9B69AD
:10114C0003F00103BB60BB68484A7B6A9B0802330F
:10115C0052F82330FB607B6A03F003039B000F22E1
:10116C0002FA03F3DB43FA681340FB607B68404AE6
:10117C00934213D07B683F4A93420DD07B683E4A22
:10118C00934207D07B683D4A934201D1032306E08A
:10119C00042304E0022302E0012300E000237A6A26
:1011AC0002F0030292009340FA681343FB602F494C
:1011BC007B6A9B080233FA6841F823203B685B6822
:1011CC0003F48013002B06D02D4B9A682C49BB6975
:1011DC0013438B6006E02A4B9A68BB69DB432849B2
:1011EC0013408B603B685B6803F40013002B06D044
:1011FC00234BDA682249BB691343CB6006E0204BD2
:10120C00DA68BB69DB431E491340CB603B685B6803
:10121C0003F40033002B06D0194B5A681849BB69EC
:10122C0013434B6006E0164B5A68BB69DB43144909
:10123C0013404B603B685B6803F48033002B21D078
:10124C000F4B1A680E49BB6913430B6021E000BFBA
:10125C00000032100000311000002210000021109C
:10126C00000012100000111000100240000001409C
:10127C0000080140000C0140001001400014014026
:10128C00000401400B4B1A68BB69DB43094913404E
:10129C000B607B6A01337B623B681A687B6A22FABB
:1012AC0003F3002B7FF48EAE00BF00BF2C37BD467E
:1012BC0080BC70470004014080B485B000AF7860FA
:1012CC000B467B807B689A687B881340002B02D08E
:1012DC000123FB7301E00023FB73FB7B18461437DF
:1012EC00BD4680BC704780B483B000AF78600B46BD
:1012FC007B8013467B707B78002B03D07A887B68CD
:10130C001A6103E07B881A047B681A6100BF0C37F2
:10131C00BD4680BC704780B485B000AF78600B468A
:10132C007B807B68DB68FB607A88FB6813401A045F
:10133C00FB68D9437B880B401A437B681A6100BF5A
:10134C001437BD4680BC704780B586B000AF78605E
:10135C007B68002B01D101236CE27B681B6803F0D6
:10136C000103002B00F08780924B5B6803F00C03A9
:10137C00042B0CD08F4B5B6803F00C03082B12D1A1
:10138C008C4B5B6803F48033B3F5803F0BD1894BF6
:10139C001B6803F40033002B6CD07B685B68002B5C
:1013AC0068D1012346E27B685B68B3F5803F06D1C8
:1013BC00804B1B687F4A43F4803313602EE07B68BC
:1013CC005B68002B0CD17B4B1B687A4A23F480336F
:1013DC001360784B1B68774A23F4802313601DE05D
:1013EC007B685B68B3F5A02F0CD1724B1B68714AFC
:1013FC0043F4802313606F4B1B686E4A43F48033B5
:10140C0013600BE06B4B1B686A4A23F48033136048
:10141C00684B1B68674A23F4802313607B685B6806
:10142C00002B13D0FFF7ACFC386108E0FFF7A8FCE9
:10143C0002463B69D31A642B01D90323FAE15D4BB5
:10144C001B6803F40033002BF0D014E0FFF798FC7A
:10145C00386108E0FFF794FC02463B69D31A642B11
:10146C0001D90323E6E1534B1B6803F40033002B33
:10147C00F0D100E000BF7B681B6803F00203002B77
:10148C0063D04C4B5B6803F00C03002B0BD0494B27
:10149C005B6803F00C03082B1CD1464B5B6803F410
:1014AC008033002B16D1434B1B6803F00203002B37
:1014BC0005D07B681B69012B01D00123BAE13D4BA0
:1014CC001B6823F0F8027B685B69DB003949134326
:1014DC000B603AE07B681B69002B20D0364B012255
:1014EC001A60FFF74DFC386108E0FFF749FC024633
:1014FC003B69D31A022B01D903239BE12D4B1B68AB
:10150C0003F00203002BF0D02A4B1B6823F0F802E7
:10151C007B685B69DB00274913430B6015E0264BA6
:10152C0000221A60FFF72CFC386108E0FFF728FC5A
:10153C0002463B69D31A022B01D903237AE11D4BD6
:10154C001B6803F00203002BF0D17B681B6803F0CF
:10155C000803002B3AD07B689B69002B19D0174BE2
:10156C0001221A60FFF70CFC386108E0FFF708FC59
:10157C0002463B69D31A022B01D903235AE10D4BC6
:10158C005B6A03F00203002BF0D0012000F09AFA02
:10159C001CE00A4B00221A60FFF7F2FB38610FE0E7
:1015AC00FFF7EEFB02463B69D31A022B08D9032343
:1015BC0040E100BF00100240000042428004424261
:1015CC009E4B5B6A03F00203002BE9D17B681B681E
:1015DC0003F00403002B00F0A6800023FB75974B4F
:1015EC00DB6903F08053002B0DD1944BDB69934ADC
:1015FC0043F08053D361914BDB6903F08053BB60A4
:10160C00BB680123FB758E4B1B6803F48073002BA6
:10161C0018D18B4B1B688A4A43F480731360FFF715
:10162C00AFFB386108E0FFF7ABFB02463B69D31A0E
:10163C00642B01D90323FDE0814B1B6803F48073F9
:10164C00002BF0D07B68DB68012B06D17B4B1B6A2F
:10165C007A4A43F0010313622DE07B68DB68002BB0
:10166C000CD1764B1B6A754A23F001031362734B42
:10167C001B6A724A23F0040313621CE07B68DB686C
:10168C00052B0CD16D4B1B6A6C4A43F0040313629F
:10169C006A4B1B6A694A43F0010313620BE0674B08
:1016AC001B6A664A23F001031362644B1B6A634A8C
:1016BC0023F0040313627B68DB68002B15D0FFF763
:1016CC005FFB38610AE0FFF75BFB02463B69D31A0C
:1016DC0041F28832934201D90323ABE0574B1B6A8A
:1016EC0003F00203002BEED014E0FFF749FB386146
:1016FC000AE0FFF745FB02463B69D31A41F28832F8
:10170C00934201D9032395E04C4B1B6A03F002036F
:10171C00002BEED1FB7D012B05D1484BDB69474AF1
:10172C0023F08053D3617B68DB69002B00F0818050
:10173C00424B5B6803F00C03082B61D07B68DB69C0
:10174C00022B46D13F4B00221A60FFF719FB386180
:10175C0008E0FFF715FB02463B69D31A022B01D9AF
:10176C00032367E0354B1B6803F00073002BF0D1AB
:10177C007B681B6AB3F5803F08D1304B5B6823F460
:10178C0000327B689B682D4913434B602B4B5B6885
:10179C0023F474127B68196A7B685B6A0B432749D4
:1017AC0013434B60274B01221A60FFF7E9FA3861AB
:1017BC0008E0FFF7E5FA02463B69D31A022B01D980
:1017CC00032337E01D4B1B6803F00073002BF0D094
:1017DC002FE01C4B00221A60FFF7D2FA386108E0A8
:1017EC00FFF7CEFA02463B69D31A022B01D9032329
:1017FC0020E0124B1B6803F00073002BF0D118E0B3
:10180C007B68DB69012B01D1012313E00B4B5B6877
:10181C00FB60FB6803F480327B681B6A9A4206D13A
:10182C00FB6803F470127B685B6A9A4201D0012357
:10183C0000E0002318461837BD4680BD001002405A
:10184C00007000406000424280B584B000AF786008
:10185C0039607B68002B01D10123D0E06A4B1B68F7
:10186C0003F007033A689A4210D9674B1B6823F0C0
:10187C00070265493B6813430B60634B1B6803F01D
:10188C0007033A689A4201D00123B8E07B681B68D1
:10189C0003F00203002B20D07B681B6803F00403C9
:1018AC00002B05D0594B5B68584A43F4E0635360F6
:1018BC007B681B6803F00803002B05D0534B5B6857
:1018CC00524A43F460535360504B5B6823F0F00270
:1018DC007B689B684D4913434B607B681B6803F026
:1018EC000103002B40D07B685B68012B07D1474B71
:1018FC001B6803F40033002B15D101237FE07B68B8
:10190C005B68022B07D1414B1B6803F00073002B63
:10191C0009D1012373E03D4B1B6803F00203002B3C
:10192C0001D101236BE0394B5B6823F003027B6828
:10193C005B68364913434B60FFF722FAF8600AE004
:10194C00FFF71EFA0246FB68D31A41F28832934223
:10195C0001D9032353E02D4B5B6803F00C027B6829
:10196C005B689B009A42EBD1274B1B6803F0070383
:10197C003A689A4210D2244B1B6823F00702224982
:10198C003B6813430B60204B1B6803F007033A685A
:10199C009A4201D0012332E07B681B6803F00403F8
:1019AC00002B08D0194B5B6823F4E0627B68DB6882
:1019BC00164913434B607B681B6803F00803002B2C
:1019CC0009D0124B5B6823F460527B681B69DB0007
:1019DC000E4913434B6000F021F802460B4B5B6839
:1019EC001B0903F00F030A49CB5C22FA03F3094AE3
:1019FC001360094B1B681846FFF780F90023184643
:101A0C001037BD4680BD00BF0020024000100240D0
:101A1C00142500080C0000201000002080B487B0B2
:101A2C0000AF0023FB600023BB6000237B6100231D
:101A3C007B6000233B611E4B5B68FB60FB6803F023
:101A4C000C03042B02D0082B03D027E0194B3B616D
:101A5C0027E0FB689B0C03F00F03174AD35C7B60F9
:101A6C00FB6803F48033002B10D0114B5B685B0CCC
:101A7C0003F00103114AD35CBB607B680D4A02FB87
:101A8C0003F2BB68B2FBF3F37B6104E07B680C4AA6
:101A9C0002FB03F37B617B693B6102E0054B3B611D
:101AAC0000BF3B6918461C37BD4680BC704700BF61
:101ABC000010024000127A0024250008342500088A
:101ACC0000093D0080B485B000AF78600A4B1B68FC
:101ADC000A4AA2FB03235B0A7A6802FB03F3FB604E
:101AEC0000BFFB685A1EFA60002BF9D100BF00BF83
:101AFC001437BD4680BC70470C000020D34D6210DB
:101B0C0080B582B000AF78607B68002B01D10123D7
:101B1C0041E07B6893F83D30DBB2002B06D17B684B
:101B2C00002283F83C207868FFF71AF87B680222C1
:101B3C0083F83D207B681A687B680433194610468D
:101B4C0000F05CFA7B68012283F846207B68012256
:101B5C0083F83E207B68012283F83F207B680122BA
:101B6C0083F840207B68012283F841207B680122A6
:101B7C0083F842207B68012283F843207B68012292
:101B8C0083F844207B68012283F845207B6801227E
:101B9C0083F83D20002318460837BD4680BD000061
:101BAC0080B485B000AF78607B6893F83D30DBB2D1
:101BBC00012B01D001233AE07B68022283F83D20FF
:101BCC007B681B68DA687B681B6842F00102DA608C
:101BDC007B681B68184A93420ED07B681B68B3F174
:101BEC00804F09D07B681B68144A934204D07B68F1
:101BFC001B68134A934211D17B681B689B6803F0E6
:101C0C000703FB60FB68062B10D07B681B681A6807
:101C1C007B681B6842F001021A6007E07B681B6856
:101C2C001A687B681B6842F001021A600023184690
:101C3C001437BD4680BC7047002C014000040040A6
:101C4C000008004080B584B000AF78607B681B68EA
:101C5C00DB68FB607B681B681B69BB60BB6803F0BF
:101C6C000203002B20D0FB6803F00203002B1BD0D7
:101C7C007B681B686FF002021A617B6801221A777D
:101C8C007B681B689B6903F00303002B03D0786807
:101C9C0000F098F905E0786800F08BF9786800F0AE
:101CAC009AF97B6800221A77BB6803F00403002BB7
:101CBC0020D0FB6803F00403002B1BD07B681B684F
:101CCC006FF004021A617B6802221A777B681B682A
:101CDC009B6903F44073002B03D0786800F072F911
:101CEC0005E0786800F065F9786800F074F97B68B5
:101CFC0000221A77BB6803F00803002B20D0FB6886
:101D0C0003F00803002B1BD07B681B686FF00802E4
:101D1C001A617B6804221A777B681B68DB6903F005
:101D2C000303002B03D0786800F04CF905E07868C9
:101D3C0000F03FF9786800F04EF97B6800221A77C2
:101D4C00BB6803F01003002B20D0FB6803F01003DA
:101D5C00002B1BD07B681B686FF010021A617B682C
:101D6C0008221A777B681B68DB6903F44073002B2D
:101D7C0003D0786800F026F905E0786800F019F9CE
:101D8C00786800F028F97B6800221A77BB6803F0AA
:101D9C000103002B0CD0FB6803F00103002B07D0D0
:101DAC007B681B686FF001021A617868FEF79AFC79
:101DBC00BB6803F08003002B0CD0FB6803F080039E
:101DCC00002B07D07B681B686FF080021A61786863
:101DDC0000F07FFABB6803F04003002B0CD0FB68CB
:101DEC0003F04003002B07D07B681B686FF04002A8
:101DFC001A61786800F0F8F8BB6803F02003002B38
:101E0C000CD0FB6803F02003002B07D07B681B6809
:101E1C006FF020021A61786800F052FA00BF103798
:101E2C00BD4680BD80B584B000AF786039600023BA
:101E3C00FB737B6893F83C30012B01D10223B4E097
:101E4C007B68012283F83C207B68022283F83D20CA
:101E5C007B681B689B68BB60BB6823F07703BB6027
:101E6C00BB6823F47F43BB607B681B68BA689A60CD
:101E7C003B681B68B3F5005F3ED0B3F5005F00F222
:101E8C008780B3F5805F00F08680B3F5805F7FD8E4
:101E9C00702B1AD0702B7BD8602B50D0602B77D83E
:101EAC00502B3CD0502B73D8402B58D0402B6FD894
:101EBC00302B64D0302B6BD8202B60D0202B67D8E4
:101ECC00002B5CD0102B5AD062E07B6818683B6802
:101EDC0099683B685A683B68DB6800F074F97B686A
:101EEC001B689B68BB60BB6843F07703BB607B6877
:101EFC001B68BA689A604FE07B6818683B68996801
:101F0C003B685A683B68DB6800F05DF97B681B68CE
:101F1C009A687B681B6842F480429A603CE07B685C
:101F2C0018683B6859683B68DB681A4600F0D4F8BF
:101F3C007B681B685021184600F02BF92CE07B685D
:101F4C0018683B6859683B68DB681A4600F0F2F881
:101F5C007B681B686021184600F01BF91CE07B684D
:101F6C0018683B6859683B68DB681A4600F0B4F89F
:101F7C007B681B684021184600F00BF90CE07B686D
:101F8C001A683B681B681946104600F002F903E01A
:101F9C000123FB7300E000BF7B68012283F83D2026
:101FAC007B68002283F83C20FB7B18461037BD462B
:101FBC0080BD80B483B000AF786000BF0C37BD46E5
:101FCC0080BC704780B483B000AF786000BF0C3722
:101FDC00BD4680BC704780B483B000AF786000BF52
:101FEC000C37BD4680BC704780B483B000AF7860BE
:101FFC0000BF0C37BD4680BC7047000080B485B074
:10200C0000AF786039607B681B68FB607B682F4A87
:10201C0093420BD07B68B3F1804F07D07B682C4A7E
:10202C00934203D07B682B4A934208D1FB6823F080
:10203C007003FB603B685B68FA681343FB607B686A
:10204C00224A93420BD07B68B3F1804F07D07B6858
:10205C001F4A934203D07B681E4A934208D1FB6807
:10206C0023F44073FB603B68DB68FA681343FB6046
:10207C00FB6823F080023B685B691343FB607B6861
:10208C00FA681A603B689A687B68DA623B681A687F
:10209C007B689A627B680D4A934203D13B681A694C
:1020AC007B681A637B6801225A617B681B6903F0A9
:1020BC000103002B05D07B681B6923F001027B68B0
:1020CC001A6100BF1437BD4680BC7047002C01401C
:1020DC00000400400008004080B487B000AFF860F6
:1020EC00B9607A60FB681B6A7B61FB681B6A23F032
:1020FC000102FB681A62FB689B693B613B6923F038
:10210C00F0033B617B681B013A6913433B617B69BC
:10211C0023F00A037B617A69BB6813437B61FB681C
:10212C003A699A61FB687A691A6200BF1C37BD462E
:10213C0080BC704780B487B000AFF860B9607A603B
:10214C00FB681B6A7B61FB681B6A23F01002FB684F
:10215C001A62FB689B693B613B6923F470433B61EA
:10216C007B681B033A6913433B617B6923F0A00333
:10217C007B61BB681B017A6913437B61FB683A691D
:10218C009A61FB687A691A6200BF1C37BD4680BC35
:10219C00704780B485B000AF786039607B689B680D
:1021AC00FB60FB6823F07003FB603A68FB68134329
:1021BC0043F00703FB607B68FA689A6000BF143732
:1021CC00BD4680BC704780B487B000AFF860B96082
:1021DC007A603B60FB689B687B617B6923F47F437F
:1021EC007B613B681A027B681A43BB6813437A69AC
:1021FC0013437B61FB687A699A6000BF1C37BD464C
:10220C0080BC704780B485B000AF786039607B6863
:10221C0093F83C30012B01D1022346E07B6801226C
:10222C0083F83C207B68022283F83D207B681B6886
:10223C005B68FB607B681B689B68BB60FB6823F07A
:10224C007003FB603B681B68FA681343FB607B6898
:10225C001B68FA685A607B681B68164A93420ED05A
:10226C007B681B68B3F1804F09D07B681B68124AEE
:10227C00934204D07B681B68104A93420CD1BB6814
:10228C0023F08003BB603B685B68BA681343BB6098
:10229C007B681B68BA689A607B68012283F83D20D2
:1022AC007B68002283F83C20002318461437BD4677
:1022BC0080BC7047002C0140000400400008004026
:1022CC0080B483B000AF786000BF0C37BD4680BCD3
:1022DC00704780B483B000AF786000BF0C37BD4648
:1022EC0080BC7047014B1868704700BF1800002075
:1022FC0070B500260C4D0D4C641BA410A64209D1E0
:10230C0000F0F6F800260A4D0A4C641BA410A642F5
:10231C0005D170BD55F8043B98470136EEE755F8EA
:10232C00043B98470136F2E73825000838250008A9
:10233C00382500083C250008024B0146186800F0BF
:10234C005FB800BF18000020024B0146186800F06F
:10235C000BB800BF1800002003460244934200D182
:10236C00704703F8011BF9E738B50546002943D03F
:10237C0051F8043C0C1F002BB8BFE41800F0AAF86D
:10238C001E4A1368104633B9636014602846BDE8D2
:10239C00384000F0A5B8A3420AD9216862189342CC
:1023AC0001BF1A685B685218226063600460EDE735
:1023BC001A465B680BB1A342FAD911685018A042B7
:1023CC000BD120680144501883421160DED118688B
:1023DC005B68014411605360D8E702D90C232B6071
:1023EC00D4E7206821188B4201BF19685B68091873
:1023FC00216063605460C9E738BD00BFB4000020A1
:10240C00F8B5CD1C25F0030508350C2D38BF0C256F
:10241C00002D064601DBA94203D90C2333600020B2
:10242C00F8BD00F057F821490A6814469CB9204FB2
:10243C003B6823B92146304600F03CF83860294609
:10244C00304600F037F8431C23D10C233046336060
:10245C0000F046F8E3E723685B1B17D40B2B03D97A
:10246C0023601C44256004E06368A2420CBF0B602F
:10247C005360304600F034F804F10B00231D20F0BB
:10248C000700C21ACCD01B1AA350C9E722466468B5
:10249C00CCE7C41C24F00304A042E3D0211A30463C
:1024AC0000F008F80130DDD1CFE700BFB400002008
:1024BC00B800002038B50023054D044608462B60B3
:1024CC00FEF7A4FB431C02D12B6803B1236038BD7B
:1024DC0008010020014800F009B800BF10010020DD
:1024EC00014800F004B800BF10010020704770478D
:1024FC00F8B500BFF8BC08BC9E467047F8B500BFE5
:08250C00F8BC08BC9E467047B4
:10251400000000000000000001020304060708098F
:1025240002030405060708090A0B0C0D0E0F101010
:0425340001020000A0
:042538003101000865
:04253C000D01000885
:1025400001000000010000000100000000127A00FC
:1025500010000000010000001C000020000000002E
:10256000000000000000000000000000000000006B
:10257000000000000000000000000000000000005B
:10258000000000000000000000000000000000004B
:10259000000000000000000000000000000000003B
:1025A000000000000000000000000000000000002B
:0C25B0000000000000000000000000001F
:0400000508000C9152
:00000001FF
