:020000040800F2
:1000000000500020A9170008C5160008CD160008EA
:10001000D5160008DD160008E516000800000000EF
:10002000000000000000000000000000ED160008C5
:10003000F916000800000000051700081117000855
:10004000F1170008F1170008F1170008F117000870
:10005000F1170008F1170008F1170008F117000860
:10006000F1170008F1170008F1170008F117000850
:10007000F1170008F1170008F1170008F117000840
:10008000F1170008F1170008F1170008F117000830
:10009000F1170008F1170008F1170008F117000820
:1000A000F1170008F1170008F1170008F117000810
:1000B0001D170008F1170008F1170008F1170008D4
:1000C000F1170008F1170008F1170008F1170008F0
:1000D000F1170008F1170008F1170008F1170008E0
:1000E000F1170008F1170008F117000800000000E0
:1000F0000000000000000000000000000000000000
:0C01000000000000000000005FF808F1A3
:10010C0010B5054C237833B9044B13B10448AFF345
:10011C0000800123237010BD90000020000000001F
:10012C00D040000808B5034B1BB103490348AFF39B
:10013C00008008BD0000000094000020D0400008A2
:10014C0080B500AFB74B1B78022B40F06881B64BE3
:10015C001B78042B00F21D8101A252F823F000BF82
:10016C0081010008C30100083B020008B30200082B
:10017C0029030008AD4B1B68AD4A1360AD4B1B68DF
:10018C00AD4A1360002000F08FFD012000F0D0FD7F
:10019C00A54B01221A70A74B1B684FF47A7202FB15
:1001AC0003F31946002001F07BF94FF47A7101201A
:1001BC0001F076F9F8E0002000F076FD012000F067
:1001CC00B7FD012001F0BCF90346002B10D0984B71
:1001DC001B68013B964A1360974B1B68013B964A80
:1001EC00136000F0D5FC4FF47A71012001F058F93E
:1001FC00002001F0A5F90346012B40F0CE808A4B7C
:10020C0002221A708D4B1B68894A13608B4B1B683A
:10021C00894A1360894B1B684FF47A7202FB03F313
:10022C001946002001F03CF900F0B2FCB5E00020CA
:10023C0000F03AFD022000F07BFD012001F080F976
:10024C000346002B10D07A4B1B68013B784A136095
:10025C00794B1B68013B784A136000F099FC4FF412
:10026C007A71012001F01CF9002001F069F90346B4
:10027C00012B40F094806C4B03221A70704B1B685E
:10028C006B4A13606F4B1B686B4A13606C4B1B689B
:10029C004FF47A7202FB03F31946002001F000F9C7
:1002AC0000F076FC7BE0012000F0FEFC002000F06A
:1002BC003FFD012001F044F90346002B10D05C4BAC
:1002CC001B68013B5A4A13605B4B1B68013B5A4A43
:1002DC00136000F05DFC4FF47A71012001F0E0F83E
:1002EC00002001F02DF90346012B5AD14E4B04226C
:1002FC001A70554B1B684E4A1360534B1B684E4A81
:10030C001360514B1B684FF47A7202FB03F31946CE
:10031C00002001F0C5F800F03BFC42E0022000F0A8
:10032C00C3FC002000F004FD012001F009F9034694
:10033C00002B10D03E4B1B68013B3D4A13603E4BDB
:10034C001B68013B3C4A136000F022FC4FF47A71AD
:10035C00012001F0A5F8002001F0F2F80346012B72
:10036C0021D1314B01221A70304B1B68304A13607B
:10037C00304B1B68304A13602E4B1B684FF47A725B
:10038C0002FB03F31946002001F08AF800F000FC90
:10039C0009E0254B01221A7006E000BF04E000BF03
:1003AC0002E000BF00E000BF022000F0E3FA0346C9
:1003BC00002B35D01B4B01221A701B4B1B78013BB9
:1003CC00032B25D801A252F823F000BFE903000843
:1003DC00F1030008030400080B0400081B4B012266
:1003EC001A7019E0194B02221A7040F6B831042029
:1003FC0001F056F810E0154B03221A700CE0134B69
:10040C0004221A7040F6B831042001F049F803E0D8
:10041C000E4B01221A7000BF00F0AAFB00E000BFD7
:10042C0080BD00BF00000020AD00002008000020AF
:10043C00200000201C0000202400002018000020B8
:10044C0010000020140000200C000020AC00002044
:10045C0080B500AF094B02221A70094B00221A70AA
:10046C00002000F021FC002000F062FC00F06BF991
:10047C00044B01221A6000BF80BD00BF00000020A9
:10048C00AD0000200400002080B500AF584B1B7855
:10049C00012B40F0A380574B1B78052B00F29A8060
:1004AC0001A252F823F000BFCD040008D9040008C3
:1004BC00110500083F05000877050008A505000890
:1004CC004C4B01221A7000F053FB90E000F09EF8A8
:1004DC00012000F04FFA0346002B09D0454B0222B5
:1004EC001A704FF4FA61042000F0DAFF00F040FBC0
:1004FC00022000F03FFA0346002B71D03D4B052241
:10050C001A706DE000F08CF8042001F019F8034625
:10051C00002B04D0374B03221A7000F029FB022069
:10052C0000F028FA0346002B5CD0324B05221A70DF
:10053C0058E000F07FF8012000F01CFA0346002B75
:10054C0009D02C4B04221A704FF4FA61042000F0ED
:10055C00A7FF00F00DFB022000F00CFA0346002B65
:10056C0042D0244B05221A703EE000F06DF80420B6
:10057C0000F0E6FF0346002B04D01E4B01221A703C
:10058C0000F0F6FA022000F0F5F90346002B2DD00E
:10059C00184B05221A7029E0154B02221A70164BC3
:1005AC0001221A70154B1B68154A1360154B1B68FA
:1005BC00154A1360134B1B684FF47A7202FB03F35A
:1005CC001946002000F06CFF4FF47A71012000F006
:1005DC0067FF0CE0074B01221A7008E000BF06E031
:1005EC0000BF04E000BF02E000BF00E000BF80BD20
:1005FC0000000020AC000020AD000020080000200E
:10060C00200000201C0000202400002080B500AF3A
:10061C00002000F049FB012000F08AFB00BF80BDE8
:10062C0080B500AF002000F03FFB022000F080FB03
:10063C0000BF80BD80B500AF012000F035FB00206D
:10064C0000F076FB00BF80BD80B500AF022000F04B
:10065C002BFB002000F06CFB00BF80BD80B586B08A
:10066C0002AF0346FB71FB7923F00F03FB73FB799D
:10067C001B01BB73FB7B43F00C03DBB23B72FB7BBC
:10068C0043F00803DBB27B72BB7B43F00C03DBB2A1
:10069C00BB72BB7B43F00803DBB2FB7207F10802B1
:1006AC006423009304234221034801F005FD00BF9D
:1006BC001037BD4680BD00BF0C01002080B586B050
:1006CC0002AF0346FB71FB7923F00F03FB73FB793D
:1006DC001B01BB73FB7B43F00D03DBB23B72FB7B5B
:1006EC0043F00903DBB27B72BB7B43F00D03DBB23F
:1006FC00BB72BB7B43F00903DBB2FB7207F1080250
:10070C006423009304234221034801F0D5FC00BF6D
:10071C001037BD4680BD00BF0C01002080B582B0F3
:10072C0000AF786006E07B685A1C7A601B7818462C
:10073C00FFF7C4FF7B681B78002BF4D100BF00BF10
:10074C000837BD4680BD80B500AF0120FFF786FF9E
:10075C0000BF80BD80B584B000AF786039607B6825
:10076C00012B08D17B68DAB23B68DBB21344DBB2F5
:10077C007F33FB7308E03B68DBB24033DBB25BB228
:10078C0063F07F035BB2FB73FB7B1846FFF766FFDE
:10079C0000BF1037BD4680BD80B582B000AF0023CE
:1007AC007B6097E0504A7B6813441B78032B00F264
:1007BC008E8001A252F823F0D5070008F707000835
:1007CC00A9080008550800087B68DBB2184600F041
:1007DC009BF90346002B75D0434A7B6813440122D6
:1007EC001A70424B00221A706CE07B68DBB2184620
:1007FC0000F08AF90346002B15D13C4B1B78012BDA
:10080C0008D1394A7B68134400221A70374B0022F6
:10081C001A7059E0344A7B68134403221A70344B23
:10082C0005221A6050E07B68DBB2184600F086F9AE
:10083C000346002B48D02C4A7B68134402221A70C2
:10084C00786800F077F83FE0294B1B68002B04DD3B
:10085C00274B1B68013B264A13607B68DBB21846AA
:10086C0000F052F90346002B0BD01F4A7B6813444F
:10087C0001221A70786800F04DF81C4B01221A7096
:10088C0024E01B4B1B68002B20D1174A7B681344B8
:10089C0000221A70786800F02DF817E07B68DBB244
:1008AC00184600F031F90346002B07D10E4A7B683D
:1008BC00134400221A700D4B00221A70786800F055
:1008CC0049F804E000BF02E000BF00E000BF7B6815
:1008DC0001337B607B68022B7FF764AF00BF00BFE6
:1008EC000837BD4680BD00BFB0000020E4000020EA
:1008FC00E800002080B483B000AF7860044A7B68C5
:10090C00012142F8231000BF0C37BD4680BC704754
:10091C00B400002080B483B000AF7860044A7B68D8
:10092C00012142F8231000BF0C37BD4680BC704734
:10093C00C000002080B483B000AF7860044A7B68AC
:10094C00012142F8231000BF0C37BD4680BC704714
:10095C00CC00002080B483B000AF7860044A7B6880
:10096C00012142F8231000BF0C37BD4680BC7047F4
:10097C00D800002080B582B000AF7860074A7B6851
:10098C0052F82330012B04D1786800F009F80123C8
:10099C0000E0002318460837BD4680BDB400002097
:1009AC0080B483B000AF78600C4A7B68002142F8B9
:1009BC0023100B4A7B68002142F82310094A7B68FC
:1009CC00002142F82310084A7B68002142F82310CA
:1009DC0000BF0C37BD4680BC704700BFB400002080
:1009EC00C0000020CC000020D800002080B582B0D0
:1009FC0000AF00237B6071E07B68022B19D07B6811
:100A0C00022B1DDC7B68002B03D07B68012B08D0EC
:100A1C0016E04FF48071354801F0DAF90346FB70AB
:100A2C0011E04FF40071314801F0D2F90346FB702C
:100A3C0009E080212E4801F0CBF90346FB7002E05F
:100A4C000123FB7000BF2B4A7B68134419782A4A98
:100A5C007B6813440A461A70264A7B681344FA785A
:100A6C001A70244A7B6813441A7823497B680B4418
:100A7C001B789A4208D11F4A7B68134419781F4A85
:100A8C007B6813440A461A701C4A7B6813441B7813
:100A9C00002B16D11A4A7B6832F81330632B0AD814
:100AAC00174A7B6832F81330013399B2144A7B68C9
:100ABC0022F813100FE0134A7B68134401221A70BA
:100ACC0009E00F4A7B68002122F813100D4A7B685D
:100ADC00134400221A707B6801337B607B68022B05
:100AEC008ADD00BF00BF0837BD4680BD000801404D
:100AFC00001001402C0000203000002028000020B5
:100B0C00F0000020EC00002080B483B000AF03465E
:100B1C00FB71FB79022B01D9002307E0FB79064A14
:100B2C00D35C002B0CBF01230023DBB218460C371F
:100B3C00BD4680BC704700BF2800002080B483B045
:100B4C0000AF0346FB71FB79022B01D9FF2307E0B1
:100B5C00FB79064AD35C012B0CBF01230023DBB2CB
:100B6C0018460C37BD4680BC704700BFEC00002017
:100B7C0080B500AFFFF7E7FD01210220FFF7EAFD8A
:100B8C000248FFF7CBFD00BF80BD00BFDC41000871
:100B9C0080B500AFFFF7D7FD01210120FFF7DAFD8B
:100BAC00364B1B78013B032B2AD801A252F823F0B9
:100BBC00CD0B0008DD0B0008ED0B0008FD0B000849
:100BCC002F4B1B681A462F492F4802F079FE18E06C
:100BDC002B4B1B681A462D492B4802F071FE10E076
:100BEC00274B1B681A462A49274802F069FE08E081
:100BFC00234B1B681A462749234802F061FE00E08C
:100C0C0000BF2148FFF78AFD01210220FFF7A2FD5A
:100C1C001A4B1B78013B032B2AD801A252F823F064
:100C2C003D0C00084D0C00085D0C00086D0C000814
:100C3C00194B1B681A461949134802F041FE18E07B
:100C4C00154B1B681A4616490F4802F039FE10E086
:100C5C00114B1B681A4613490B4802F031FE08E091
:100C6C000D4B1B681A460F49074802F029FE00E09D
:100C7C0000BF0548FFF752FD00BF80BDAD0000204E
:100C8C0020000020EC410008F8000020F84100088A
:100C9C000442000810420008240000201C420008F6
:100CAC00284200083442000880B582B000AF78605A
:100CBC007B68022B1FD07B68022B27DC7B68002B08
:100CCC0003D07B68012B0BD020E0012208211748B0
:100CDC0001F095F801222021144801F090F820E051
:100CEC0001220821114801F08AF8002220210F4826
:100CFC0001F085F815E0002208210C4801F07FF87E
:100D0C0001222021094801F07AF80AE0002208218A
:100D1C00064801F074F800222021044801F06FF815
:100D2C0000BF00BF0837BD4680BD00BF000C0140AE
:100D3C0080B582B000AF78607B68022B21D07B68D5
:100D4C00022B2ADC7B68002B03D07B68012B0CD098
:100D5C0023E001221021194801F051F801224FF42F
:100D6C008061164801F04BF823E001221021134852
:100D7C0001F045F800224FF48061104801F03FF873
:100D8C0017E0002210210D4801F039F801224FF430
:100D9C0080610A4801F033F80BE00022102107486B
:100DAC0001F02DF800224FF48061044801F027F87F
:100DBC0000BF00BF0837BD4680BD00BF000C01401E
:100DCC0080B500AF00F066F900F00EFD00F034F8CD
:100DDC0000F0E8F800F09AF800F06AF8104802F019
:100DEC000FF9FFF735FB0A220A210E4800F064F9CF
:100DFC000A220A210C4800F05FF90A220A210B484A
:100E0C0000F05AF90A220A21094800F055F90A2281
:100E1C000A21084800F050F900F0A0FAFCE700BFE6
:100E2C0060010020F9090008ED140008A50700086E
:100E3C004D0100089504000880B590B000AF07F193
:100E4C00180328220021184602F05CFD3B1D0022ED
:100E5C001A605A609A60DA601A610223BB6101233E
:100E6C00BB621023FB6200237B6307F11803184657
:100E7C0001F07AFC0346002B01D000F005F90F239A
:100E8C007B600023BB600023FB6000233B610023DD
:100E9C007B613B1D0021184601F0E8FE0346002B48
:100EAC0001D000F0F1F800BF4037BD4680BD000016
:100EBC0080B500AF124B134A1A60114B124A5A609C
:100ECC000F4B00229A600E4B0022DA600C4B4FF451
:100EDC0080421A610A4B00225A61094B00229A6126
:100EEC00074B0022DA61064B00221A62044800F01C
:100EFC009FFF0346002B01D000F0C6F800BF80BD59
:100F0C000C01002000540040A086010080B586B082
:100F1C0000AF07F1080300221A605A609A60DA6089
:100F2C003B4600221A605A601D4B4FF080421A60FB
:100F3C001B4B41F63F725A60194B00229A60184BBA
:100F4C000922DA60164B00221A61154B00229A61B5
:100F5C00134802F005F80346002B01D000F094F87A
:100F6C004FF48053BB6007F1080319460C4802F09C
:100F7C0089F90346002B01D000F086F800233B6072
:100F8C0000237B603B461946054802F06BFB034689
:100F9C00002B01D000F078F800BF1837BD4680BD9B
:100FAC006001002080B588B000AF07F1100300226B
:100FBC001A605A609A60DA602A4B9B69294A43F09E
:100FCC0008039361274B9B6903F00803FB60FB68E4
:100FDC00244B9B69234A43F010039361214B9B697B
:100FEC0003F01003BB60BB681E4B9B691D4A43F0AA
:100FFC00040393611B4B9B6903F004037B607B68C8
:10100C0000224FF48761184800F0F9FE4FF4876313
:10101C003B6101237B610023BB610223FB6107F170
:10102C0010031946104800F04FFD80233B6100234C
:10103C007B610023BB6107F1100319460B4800F0DC
:10104C0043FD4FF440733B6100237B610023BB6184
:10105C0007F110031946064800F036FD00BF203793
:10106C00BD4680BD00100240000C01400010014044
:10107C000008014080B582B000AF786000F0BEF986
:10108C0000BF0837BD4680BD80B400AF72B600BF4C
:10109C0000BFFDE780B500AF042002F053FB034610
:1010AC001A46044B1A60034B1B6800221A6000BFDF
:1010BC0080BD00BFA801002080B58AB000AFF860E9
:1010CC00B9607A602B4B1B68282B01D102234CE0B2
:1010DC00284B1B680133274A1360BB687B620023D3
:1010EC0087F82330244B1B681B68FB610023BB6112
:1010FC0000237B6111E0FB691B685A68BB691344D0
:10110C00BB61BB69BA689A420BD397F823300133A1
:10111C0087F82330FB695B68FB61FB69002BEAD124
:10112C0000E000BFFB69002B12D0BA69FB691B6899
:10113C005B68D31A7B617B69BA68D31A7B62FB69E3
:10114C001B685968FB691B687A6A8A1A5A6003E043
:10115C00BB69BA68D31A7B6297F823307A68796ACC
:10116C00F86800F00BF897F8233018462837BD467E
:10117C0080BD00BFAC010020A801002080B588B064
:10118C0000AFF860B9607A603B60082002F0DAFAD0
:10119C0003467B617B69002B58D0142002F0D2FAF5
:1011AC0003461A467B691A607B691B68002B03D1C6
:1011BC00786902F0CFFA4AE07B691B68FA681A601A
:1011CC007B691B68BA685A607B691B687A689A608D
:1011DC007B691B6800221A737B691B683A681A6169
:1011EC007B6900225A603B68002B09D1194B1B68A4
:1011FC001A687B695A60174B1B687A691A6022E07F
:10120C00144B1B681B68FB610023BB6105E0FB6989
:10121C005B68FB61BB690133BB613B68013BBA692D
:10122C009A4202DAFB69002BF1D1FB69002B07D043
:10123C00FB695A687B695A60FB697A695A6002E0FB
:10124C00786902F087FA00F00DF900E000BF203752
:10125C00BD4680BDA801002080B586B000AF034616
:10126C00FB713C4B1B681B687B610023FB60394B9B
:10127C001B68002B04D0374B1B681B68002B01D15B
:10128C00022363E0FB79002B18D1324B1B681B68DF
:10129C00FB60304B1B68FA6852681A60FB681B686D
:1012AC00002B07D0FB681B68184602F053FAFB684A
:1012BC0000221A60F86802F04DFA3FE000233B610F
:1012CC0005E07B695B687B613B6901333B617B6952
:1012DC00002B04D0FB79013B3A699A42F1DB7B6924
:1012EC00002B03D07B695B68002B01D102232DE01E
:1012FC007B695B68FB60FB685B68002B0BD0FB6851
:10130C005B681B685968FB681B685A68FB685B68FC
:10131C001B680A445A60FB685A687B695A60FB6810
:10132C001B68002B07D0FB681B68184602F012FAEA
:10133C00FB6800221A60F86802F00CFA00F092F8D0
:10134C00054B1B68013B044A1360012318461837F0
:10135C00BD4680BDA8010020AC01002080B584B042
:10136C0000AF254B1B681B68002B40D0224B1B6821
:10137C001B681B681B7B002B39D01F4B1B681B6821
:10138C001B681A7B1C4B1B681B681B68013AD2B28A
:10139C001A7320E0184B1B681B68FB60FB681B680A
:1013AC001B689847FB681B689B68002B10D0FB6878
:1013BC001B681B68BB60FB681B689B687B6000201C
:1013CC00FFF74AFF7A687968B868FFF775FE02E0A4
:1013DC000020FFF741FF084B1B681B68002B06D051
:1013EC00054B1B681B681B685B68002BD2D000BFC9
:1013FC001037BD4680BD00BFA801002080B400AFEF
:10140C00174B1B681B68002B25D0154B1B681B68E2
:10141C001B68002B1FD0124B1B681B681B685B687A
:10142C00002B0CD10E4B1B681B681B681A7B0C4BDA
:10143C001B681B681B680132D2B21A730CE0084B94
:10144C001B681B681B685A68054B1B681B681B686C
:10145C000A3A5A6000E000BFBD4680BC704700BF2E
:10146C00A801002080B483B000AF00237B600B4B3D
:10147C001B681B683B6008E07B685A1C7A603A6802
:10148C00126813613B685B683B603B68002BF3D1CF
:10149C0000BF00BF0C37BD4680BC7047A8010020C0
:1014AC0080B483B000AF786039603B680A4A82FB35
:1014BC0003129210DB17D21A08497B6841F83320CB
:1014CC00064A7B68DB00134400225A6000BF0C37CD
:1014DC00BD4680BC704700BF67666666B0010020E1
:1014EC0080B483B000AF00237B601DE0134A7B689F
:1014FC0052F83330002B14DD104A7B6852F833302D
:10150C005A1E0E497B6841F833200C4A7B6852F80E
:10151C003330002B05DC094A7B68DB0013440122C5
:10152C005A607B6801337B607B68092BDEDD00BF72
:10153C0000BF0C37BD4680BC704700BFB001002017
:10154C0080B483B000AF7860074A7B68DB0013443B
:10155C005B68002B01D0012300E0002318460C37F8
:10156C00BD4680BC704700BFB001002080B485B080
:10157C0000AF154B9B69144A43F001039361124B66
:10158C009B6903F00103BB60BB680F4BDB690E4A20
:10159C0043F08053D3610C4BDB6903F080537B60C9
:1015AC007B680A4B5B68FB60FB6823F0E063FB60C5
:1015BC00FB6843F00073FB60044AFB68536000BF98
:1015CC001437BD4680BC704700100240000001403B
:1015DC0080B58AB000AF786007F1140300221A605E
:1015EC005A609A60DA607B681B681D4A934232D15C
:1015FC001C4B9B691B4A43F008039361194B9B6975
:10160C0003F008033B613B694FF440737B61122389
:10161C00BB6103233B6207F114031946124800F027
:10162C0053FA124B5B687B627B6A43F0E0637B622C
:10163C007B6A43F002037B620C4A7B6A5360094B62
:10164C00DB69084A43F40013D361064BDB6903F4EE
:10165C000013FB60FB6800BF2837BD4680BD00BF90
:10166C000054004000100240000C014000000140FA
:10167C0080B584B000AF78607B681B68B3F1804F95
:10168C0013D10C4BDB690B4A43F00103D361094BBB
:10169C00DB6903F00103FB60FB68002200211C20C6
:1016AC0000F0DBF91C2000F0F4F900BF1037BD4648
:1016BC0080BD00BF0010024080B400AF00BFFDE74A
:1016CC0080B400AF00BFFDE780B400AF00BFFDE702
:1016DC0080B400AF00BFFDE780B400AF00BFFDE7F2
:1016EC0080B400AF00BFBD4680BC704780B400AF73
:1016FC0000BFBD4680BC704780B400AF00BFBD4684
:10170C0080BC704780B500AF00F0B4F800BF80BD5E
:10171C0080B500AF024801F0C5FC00BF80BD00BF22
:10172C006001002080B586B000AF7860144A154B7C
:10173C00D31A7B617B693B61134B1B68002B02D175
:10174C00114B124A1A60104B1A687B6813443A69A1
:10175C009A4207D202F0EEF803460C221A604FF0C0
:10176C00FF3309E0084B1B68FB60074B1A687B686A
:10177C001344054A1360FB6818461837BD4680BDF4
:10178C000050002000040000000200205003002044
:10179C0080B400AF00BFBD4680BC7047FFF7F8FFB8
:1017AC000B480C490C4A002302E0D458C4500433B3
:1017BC00C4188C42F9D3094A094C002301E0136088
:1017CC000432A242FBD302F0BBF8FFF7F9FA7047E0
:1017DC000000002090000020A8420008900000208B
:1017EC0050030020FEE7000080B500AF084B1B68DB
:1017FC00074A43F010031360032000F023F90F2075
:10180C0000F008F8FFF7B2FE0023184680BD00BFB9
:10181C000020024080B582B000AF7860124B1A688D
:10182C00124B1B7819464FF47A73B3FBF1F3B2FBEE
:10183C00F3F3184600F03BF90346002B01D00123CB
:10184C000EE07B680F2B0AD8002279684FF0FF302E
:10185C0000F003F9064A7B681360002300E00123C3
:10186C0018460837BD4680BD340000203C000020DF
:10187C003800002080B400AF054B1B781A46054B8E
:10188C001B681344034A136000BFBD4680BC7047FD
:10189C003C0000200402002080B400AF024B1B6807
:1018AC001846BD4680BC70470402002080B485B049
:1018BC0000AF78607B6803F00703FB600C4BDB68C0
:1018CC00BB60BA684FF6FF031340BB60FB681A029B
:1018DC00BB68134343F0BF6343F40033BB60044A5B
:1018EC00BB68D36000BF1437BD4680BC704700BFD7
:1018FC0000ED00E080B400AF044BDB681B0A03F082
:10190C0007031846BD4680BC704700BF00ED00E0E1
:10191C0080B483B000AF0346FB7197F90730002BFE
:10192C000BDBFB7903F01F02064997F907305B09C3
:10193C00012000FA02F241F8232000BF0C37BD460B
:10194C0080BC704700E100E080B483B000AF034678
:10195C003960FB7197F90730002B0ADB3B68DAB270
:10196C000C4997F907301201D2B20B4483F80023CB
:10197C000AE03B68DAB20849FB7903F00F03043B39
:10198C001201D2B20B441A7600BF0C37BD4680BC94
:10199C00704700BF00E100E000ED00E080B489B0CA
:1019AC0000AFF860B9607A60FB6803F00703FB6175
:1019BC00FB69C3F10703042B28BF0423BB61FB693C
:1019CC000433062B02D9FB69033B00E000237B6147
:1019DC004FF0FF32BB6902FA03F3DA43BB681A40DB
:1019EC007B699A404FF0FF317B6901FA03F3D943CD
:1019FC007B680B40134318462437BD4680BC7047A8
:101A0C0080B582B000AF78607B68013BB3F1807F1A
:101A1C0001D301230FE00A4A7B68013B53600F217D
:101A2C004FF0FF30FFF790FF054B00229A60044BFC
:101A3C0007221A60002318460837BD4680BD00BF38
:101A4C0010E000E080B582B000AF78607868FFF7F6
:101A5C002DFF00BF0837BD4680BD80B586B000AFF6
:101A6C000346B9607A60FB7300237B61FFF742FF8A
:101A7C0078617A68B9687869FFF790FF024697F940
:101A8C000F3011461846FFF75FFF00BF1837BD46F1
:101A9C0080BD80B582B000AF0346FB7197F907306B
:101AAC001846FFF735FF00BF0837BD4680BD80B52F
:101ABC0082B000AF78607868FFF7A2FF0346184643
:101ACC000837BD4680BD000080B48BB000AF786095
:101ADC00396000237B6200233B6269E101227B6A4F
:101AEC0002FA03F3FB613B681B68FA691340BB61A4
:101AFC00BA69FB699A4240F058813B685B689A4A24
:101B0C0093425ED0984A934275D8984A934258D0E3
:101B1C00964A93426FD8964A934252D0944A934233
:101B2C0069D8944A93424CD0924A934263D8924AD1
:101B3C00934246D0904A93425DD8122B2AD8122B4E
:101B4C0059D801A252F823F0CF1B0008A91B00089A
:101B5C00BB1B0008FD1B0008031C0008031C00082D
:101B6C00031C0008031C0008031C0008031C0008CD
:101B7C00031C0008031C0008031C0008031C0008BD
:101B8C00031C0008031C0008031C0008B11B000800
:101B9C00C51B0008794A934213D02CE03B68DB68E4
:101BAC003B6229E03B68DB6804333B6224E03B6822
:101BBC00DB6808333B621FE03B68DB680C333B623D
:101BCC001AE03B689B68002B02D104233B6213E0B4
:101BDC003B689B68012B05D108233B627B68FA6943
:101BEC001A6109E008233B627B68FA695A6103E0D9
:101BFC0000233B6200E000BFBB69FF2B01D87B6870
:101C0C0001E07B6804337B61BB69FF2B02D87B6AE4
:101C1C009B0002E07B6A083B9B003B617B691A6876
:101C2C000F213B6901FA03F3DB431A40396A3B6924
:101C3C0001FA03F31A437B691A603B685B6803F093
:101C4C008053002B00F0B1804D4B9B694C4A43F004
:101C5C00010393614A4B9B6903F00103BB60BB68B2
:101C6C00484A7B6A9B08023352F82330FB607B6A3C
:101C7C0003F003039B000F2202FA03F3DB43FA6821
:101C8C001340FB607B68404A934213D07B683F4A09
:101C9C0093420DD07B683E4A934207D07B683D4A05
:101CAC00934201D1032306E0042304E0022302E063
:101CBC00012300E000237A6A02F0030292009340B1
:101CCC00FA681343FB602F497B6A9B080233FA685E
:101CDC0041F823203B685B6803F48013002B06D08B
:101CEC002D4B9A682C49BB6913438B6006E02A4B39
:101CFC009A68BB69DB43284913408B603B685B687F
:101D0C0003F40013002B06D0234BDA682249BB697D
:101D1C001343CB6006E0204BDA68BB69DB431E49FA
:101D2C001340CB603B685B6803F40033002B06D098
:101D3C00194B5A681849BB6913434B6006E0164BA4
:101D4C005A68BB69DB43144913404B603B685B68C2
:101D5C0003F48033002B21D00F4B1A680E49BB695A
:101D6C0013430B6021E000BF000032100000311063
:101D7C0000002210000021100000121000001110B1
:101D8C00001002400000014000080140000C01401E
:101D9C000010014000140140000401400B4B1A6874
:101DAC00BB69DB43094913400B607B6A01337B62DF
:101DBC003B681A687B6A22FA03F3002B7FF48EAE21
:101DCC0000BF00BF2C37BD4680BC704700040140EB
:101DDC0080B485B000AF78600B467B807B689A68D6
:101DEC007B881340002B02D00123FB7301E00023FE
:101DFC00FB73FB7B18461437BD4680BC704780B420
:101E0C0083B000AF78600B467B8013467B707B7889
:101E1C00002B03D07A887B681A6103E07B881A0454
:101E2C007B681A6100BF0C37BD4680BC7047000050
:101E3C0080B584B000AF78607B68002B01D10123A2
:101E4C002BE17B6893F83D30DBB2002B06D17B682D
:101E5C00002283F83C207868FFF7BAFB7B682422C9
:101E6C0083F83D207B681B681A687B681B6822F02E
:101E7C0001021A607B681B681A687B681B6842F455
:101E8C0000421A607B681B681A687B681B6822F426
:101E9C0000421A6001F032F8F8607B685B68814A96
:101EAC00934207D8FB68804A934294BF01230023D6
:101EBC00DBB206E0FB687D4A934294BF012300230A
:101ECC00DBB2002B01D00123E7E0FB68784AA2FBD0
:101EDC0003239B0CBB607B681B685B6823F03F0192
:101EEC007B681B68BA680A435A607B681B681B6A6C
:101EFC0023F03F017B685B686A4A934202D8BB6857
:101F0C00013309E0BB684FF4967202FB03F3694A94
:101F1C00A2FB03239B0901337A6812680B431362FB
:101F2C007B681B68DB6923F44F4222F0FF027B685D
:101F3C005B685C498B4219D8FB68591E7B685B68EF
:101F4C005B00B1FBF3F3591C40F6FC730B40002B08
:101F5C000AD0FB68591E7B685B685B00B1FBF3F32E
:101F6C000133C3F30B0351E004234FE07B689B6800
:101F7C00002B11D1FB68581E7B6859680B465B001F
:101F8C000B44B0FBF3F30133C3F30B03002B0CBF77
:101F9C0001230023DBB212E0FB68581E7B685968F2
:101FAC000B469B000B4499000B44B0FBF3F301333D
:101FBC00C3F30B03002B0CBF01230023DBB2002B5C
:101FCC0001D0012322E07B689B68002B0ED1FB68BB
:101FDC00581E7B6859680B465B000B44B0FBF3F34F
:101FEC000133C3F30B0343F400430FE0FB68581EAB
:101FFC007B6859680B469B000B4499000B44B0FB63
:10200C00F3F30133C3F30B0343F4404379680968DA
:10201C001343CB617B681B681B6823F0C0017B6892
:10202C00DA697B681B6A1A437B681B680A431A606F
:10203C007B681B689B6823F4034323F0FF037A68D7
:10204C0011697A68D26811437A6812680B439360FD
:10205C007B681B68DB6823F0FF017B685A697B682F
:10206C009B691A437B681B680A43DA607B681B68B0
:10207C001A687B681B6842F001021A607B680022B8
:10208C001A647B68202283F83D207B6800221A6347
:10209C007B68002283F83E20002318461037BD468B
:1020AC0080BD00BFA08601007F841E00FF083D009C
:1020BC0083DE1B43D34D621080B588B002AFF8604D
:1020CC007A601A460B467B8113463B81FFF7E4FB93
:1020DC007861FB6893F83D30DBB2202B40F0E08058
:1020EC007B690093192301227049F86800F064F9A8
:1020FC000346002B01D00223D3E0FB6893F83C305D
:10210C00012B01D10223CCE0FB68012283F83C2097
:10211C00FB681B681B6803F00103012B07D0FB68ED
:10212C001B681A68FB681B6842F001021A60FB68A6
:10213C001B681A68FB681B6822F400621A60FB6853
:10214C00212283F83D20FB68102283F83E20FB6897
:10215C0000221A64FB687A685A62FB683A895A85CD
:10216C00FB685B8D9AB2FB681A85FB68504ADA6291
:10217C0079897B693A6AF86800F09CF80346002B71
:10218C0001D001238DE000233B61FB681B685B6978
:10219C003B61FB681B689B693B613B6966E07A6944
:1021AC00396AF86800F022FA0346002B0DD0FB6860
:1021BC001B6C042B07D1FB681B681A68FB681B6837
:1021CC0042F400721A6001236BE0FB685B6A1A78B8
:1021DC00FB681B681A61FB685B6A5A1CFB685A62D5
:1021EC00FB685B8D9BB2013B9AB2FB685A85FB681E
:1021FC001B8D013B9AB2FB681A85FB681B685B69F7
:10220C0003F00403042B1BD1FB681B8D002B17D090
:10221C00FB685B6A1A78FB681B681A61FB685B6A6F
:10222C005A1CFB685A62FB685B8D9BB2013B9AB2ED
:10223C00FB685A85FB681B8D013B9AB2FB681A85BB
:10224C007A69396AF86800F019FA0346002B0DD048
:10225C00FB681B6C042B07D1FB681B681A68FB68B6
:10226C001B6842F400721A6001231AE0FB681B8D94
:10227C00002B94D1FB681B681A68FB681B6842F43E
:10228C0000721A60FB68202283F83D20FB68002254
:10229C0083F83E20FB68002283F83C20002300E0FA
:1022AC00022318461837BD4680BD00BF020010003F
:1022BC000000FFFF80B588B002AFF8607A603B6029
:1022CC000B467B81FB68DB6A7B617B69082B06D044
:1022DC007B69012B03D07B6913F5803F08D1FB6828
:1022EC001B681A68FB681B6842F480721A600BE06A
:1022FC00FB681B6B122B07D1FB681B681A68FB6809
:10230C001B6842F480721A603B6800937B68002261
:10231C004FF00111F86800F04FF80346002B0DD078
:10232C00FB681B681B6803F48073B3F5807F03D1D3
:10233C00FB684FF400721A64032335E0FB681B69D9
:10234C00B3F5804F08D17B89DBB21A46FB681B685A
:10235C0002F0FE021A611BE07B89DB11DBB203F099
:10236C000603DBB263F00F03DAB2FB681B681A6179
:10237C003B687A680E49F86800F098F80346002B21
:10238C0001D0012310E07B89DAB2FB681B681A616B
:10239C003B687A680749F86800F088F80346002B18
:1023AC0001D0012300E0002318461837BD4680BD3C
:1023BC00080001000200010080B584B000AFF86095
:1023CC00B9603B601346FB7148E03B68B3F1FF3FDB
:1023DC0044D0FFF761FA0246BB69D31A3A689A42B5
:1023EC0002D33B68002B39D1BB681B0CDBB2012B31
:1023FC000DD1FB681B685B69DA43BB6813409BB269
:10240C00002B0CBF01230023DBB21A460CE0FB6847
:10241C001B689B69DA43BB6813409BB2002B0CBF53
:10242C0001230023DBB21A46FB799A4216D1FB68D2
:10243C0000221A63FB68202283F83D20FB680022EF
:10244C0083F83E20FB681B6C43F02002FB681A6487
:10245C00FB68002283F83C20012323E0BB681B0CA3
:10246C00DBB2012B0DD1FB681B685B69DA43BB68DF
:10247C0013409BB2002B0CBF01230023DBB21A4686
:10248C000CE0FB681B689B69DA43BB6813409BB28A
:10249C00002B0CBF01230023DBB21A46FB799A42B6
:1024AC0093D0002318461037BD4680BD80B584B04C
:1024BC0000AFF860B9607A603B6071E0FB681B6844
:1024CC005B6903F48063B3F5806F23D1FB681B68F1
:1024DC001A68FB681B6842F400721A60FB681B6880
:1024EC006FF480625A61FB6800221A63FB68202239
:1024FC0083F83D20FB68002283F83E20FB681B6CB0
:10250C0043F00402FB681A64FB68002283F83C2049
:10251C00012367E07B68B3F1FF3F41D0FFF7BCF9C3
:10252C0002463B68D31A7A689A4202D37B68002B26
:10253C0036D1BB681B0CDBB2012B0CD1FB681B68C2
:10254C005B69DA43BB6813409BB2002B14BF0123B9
:10255C000023DBB20BE0FB681B689B69DA43BB68AA
:10256C0013409BB2002B14BF01230023DBB2002BC2
:10257C0016D0FB6800221A63FB68202283F83D20EA
:10258C00FB68002283F83E20FB681B6C43F02002A2
:10259C00FB681A64FB68002283F83C20012321E0CD
:1025AC00BB681B0CDBB2012B0CD1FB681B685B6995
:1025BC00DA43BB6813409BB2002B14BF01230023EA
:1025CC00DBB20BE0FB681B689B69DA43BB6813400A
:1025DC009BB2002B14BF01230023DBB2002B7FF432
:1025EC006DAF002318461037BD4680BD80B584B052
:1025FC0000AFF860B9607A6034E0F86800F086F8F3
:10260C000346002B01D0012334E0BB68B3F1FF3F3C
:10261C0028D0FFF741F902467B68D31ABA689A4270
:10262C0002D3BB68002B1DD1FB681B685B6903F0F0
:10263C008003802B16D0FB6800221A63FB682022D3
:10264C0083F83D20FB68002283F83E20FB681B6C5E
:10265C0043F02002FB681A64FB68002283F83C20DC
:10266C00012307E0FB681B685B6903F08003802B88
:10267C00C3D1002318461037BD4680BD80B584B049
:10268C0000AFF860B9607A6034E0F86800F03EF8AA
:10269C000346002B01D0012334E0BB68B3F1FF3FAC
:1026AC0028D0FFF7F9F802467B68D31ABA689A4229
:1026BC0002D3BB68002B1DD1FB681B685B6903F060
:1026CC000403042B16D0FB6800221A63FB6820223B
:1026DC0083F83D20FB68002283F83E20FB681B6CCE
:1026EC0043F02002FB681A64FB68002283F83C204C
:1026FC00012307E0FB681B685B6903F00403042BF0
:10270C00C3D1002318461037BD4680BD80B483B0BA
:10271C0000AF78607B681B685B6903F48063B3F57A
:10272C00806F1BD17B681B686FF480625A617B6879
:10273C0000221A637B68202283F83D207B680022EC
:10274C0083F83E207B681B6C43F004027B681A64A0
:10275C007B68002283F83C20012300E0002318460C
:10276C000C37BD4680BC704780B586B000AF786032
:10277C007B68002B01D1012372E27B681B6803F09C
:10278C000103002B00F08780924B5B6803F00C0375
:10279C00042B0CD08F4B5B6803F00C03082B12D16D
:1027AC008C4B5B6803F48033B3F5803F0BD1894BC2
:1027BC001B6803F40033002B6CD07B685B68002B28
:1027CC0068D101234CE27B685B68B3F5803F06D18E
:1027DC00804B1B687F4A43F4803313602EE07B6888
:1027EC005B68002B0CD17B4B1B687A4A23F480333B
:1027FC001360784B1B68774A23F4802313601DE029
:10280C007B685B68B3F5A02F0CD1724B1B68714AC7
:10281C0043F4802313606F4B1B686E4A43F4803380
:10282C0013600BE06B4B1B686A4A23F48033136014
:10283C00684B1B68674A23F4802313607B685B68D2
:10284C00002B13D0FFF728F8386108E0FFF724F8C5
:10285C0002463B69D31A642B01D9032300E25D4B7A
:10286C001B6803F40033002BF0D014E0FFF714F8CE
:10287C00386108E0FFF710F802463B69D31A642B65
:10288C0001D90323ECE1534B1B6803F40033002BF9
:10289C00F0D100E000BF7B681B6803F00203002B43
:1028AC0063D04C4B5B6803F00C03002B0BD0494BF3
:1028BC005B6803F00C03082B1CD1464B5B6803F4DC
:1028CC008033002B16D1434B1B6803F00203002B03
:1028DC0005D07B681B69012B01D00123C0E13D4B66
:1028EC001B6823F0F8027B685B69DB0039491343F2
:1028FC000B603AE07B681B69002B20D0364B012221
:10290C001A60FEF7C9FF386108E0FEF7C5FF024602
:10291C003B69D31A022B01D90323A1E12D4B1B6870
:10292C0003F00203002BF0D02A4B1B6823F0F802B3
:10293C007B685B69DB00274913430B6015E0264B72
:10294C0000221A60FEF7A8FF386108E0FEF7A4FF2A
:10295C0002463B69D31A022B01D9032380E11D4B9C
:10296C001B6803F00203002BF0D17B681B6803F09B
:10297C000803002B3AD07B689B69002B19D0174BAE
:10298C0001221A60FEF788FF386108E0FEF784FF29
:10299C0002463B69D31A022B01D9032360E10D4B8C
:1029AC005B6A03F00203002BF0D0012000F0BAFAAE
:1029BC001CE00A4B00221A60FEF76EFF38610FE034
:1029CC00FEF76AFF02463B69D31A022B08D9032390
:1029DC0046E100BF00100240000042428004424227
:1029EC00924B5B6A03F00203002BE9D17B681B68F6
:1029FC0003F00403002B00F0A6800023FB758B4B27
:102A0C00DB6903F08053002B0DD1884BDB69874ABF
:102A1C0043F08053D361854BDB6903F08053BB607B
:102A2C00BB680123FB75824B1B6803F48073002B7E
:102A3C0018D17F4B1B687E4A43F480731360FEF7FA
:102A4C002BFF386108E0FEF727FF02463B69D31ADB
:102A5C00642B01D9032303E1754B1B6803F48073CA
:102A6C00002BF0D07B68DB68012B06D16F4B1B6A07
:102A7C006E4A43F0010313622DE07B68DB68002B88
:102A8C000CD16A4B1B6A694A23F001031362674B32
:102A9C001B6A664A23F0040313621CE07B68DB6844
:102AAC00052B0CD1614B1B6A604A43F00403136283
:102ABC005E4B1B6A5D4A43F0010313620BE05B4BF8
:102ACC001B6A5A4A23F001031362584B1B6A574A7C
:102ADC0023F0040313627B68DB68002B15D0FEF730
:102AEC00DBFE38610AE0FEF7D7FE02463B69D31ADB
:102AFC0041F28832934201D90323B1E04B4B1B6A5C
:102B0C0003F00203002BEED014E0FEF7C5FE386193
:102B1C000AE0FEF7C1FE02463B69D31A41F2883245
:102B2C00934201D903239BE0404B1B6A03F0020341
:102B3C00002BEED1FB7D012B05D13C4BDB693B4AD5
:102B4C0023F08053D3617B68DB69002B00F0878016
:102B5C00364B5B6803F00C03082B61D07B68DB6998
:102B6C00022B46D1334B00221A60FEF795FE3861DA
:102B7C0008E0FEF791FE02463B69D31A022B01D9FD
:102B8C0003236DE0294B1B6803F00073002BF0D17D
:102B9C007B681B6AB3F5803F08D1244B5B6823F438
:102BAC0000327B689B68214913434B601F4B5B6869
:102BBC0023F474127B68196A7B685B6A0B431B49AC
:102BCC0013434B601B4B01221A60FEF765FE386104
:102BDC0008E0FEF761FE02463B69D31A022B01D9CD
:102BEC0003233DE0114B1B6803F00073002BF0D066
:102BFC0035E0104B00221A60FEF74EFE386108E0FB
:102C0C00FEF74AFE02463B69D31A022B01D9032375
:102C1C0026E0064B1B6803F00073002BF0D11EE07E
:102C2C007B68DB69012B07D1012319E000100240FE
:102C3C0000700040600042420B4B5B68FB60FB681D
:102C4C0003F480327B681B6A9A4206D1FB6803F45A
:102C5C0070127B685B6A9A4201D0012300E000236A
:102C6C0018461837BD4680BD0010024080B584B0B0
:102C7C0000AF786039607B68002B01D10123D0E074
:102C8C006A4B1B6803F007033A689A4210D9674BEA
:102C9C001B6823F0070265493B6813430B60634BC9
:102CAC001B6803F007033A689A4201D00123B8E08D
:102CBC007B681B6803F00203002B20D07B681B6829
:102CCC0003F00403002B05D0594B5B68584A43F4BE
:102CDC00E06353607B681B6803F00803002B05D08E
:102CEC00534B5B68524A43F460535360504B5B68E0
:102CFC0023F0F0027B689B684D4913434B607B6863
:102D0C001B6803F00103002B40D07B685B68012B30
:102D1C0007D1474B1B6803F40033002B15D101235B
:102D2C007FE07B685B68022B07D1414B1B6803F08B
:102D3C000073002B09D1012373E03D4B1B6803F09A
:102D4C000203002B01D101236BE0394B5B6823F0AC
:102D5C0003027B685B68364913434B60FEF79CFDAE
:102D6C00F8600AE0FEF798FD0246FB68D31A41F2C0
:102D7C008832934201D9032353E02D4B5B6803F057
:102D8C000C027B685B689B009A42EBD1274B1B685B
:102D9C0003F007033A689A4210D2244B1B6823F0C5
:102DAC00070222493B6813430B60204B1B6803F05E
:102DBC0007033A689A4201D0012332E07B681B6812
:102DCC0003F00403002B08D0194B5B6823F4E0627A
:102DDC007B68DB68164913434B607B681B6803F008
:102DEC000803002B09D0124B5B6823F460527B68FC
:102DFC001B69DB000E4913434B6000F021F80246BF
:102E0C000B4B5B681B0903F00F030A49CB5C22FADE
:102E1C0003F3094A1360094B1B681846FEF7FAFCCA
:102E2C00002318461037BD4680BD00BF002002406D
:102E3C0000100240404200083400002038000020FE
:102E4C0080B487B000AF0023FB600023BB6000237D
:102E5C007B6100237B6000233B611E4B5B68FB6046
:102E6C00FB6803F00C03042B02D0082B03D027E0E3
:102E7C00194B3B6127E0FB689B0C03F00F03174ACF
:102E8C00D35C7B60FB6803F48033002B10D0114BB8
:102E9C005B685B0C03F00103114AD35CBB607B687D
:102EAC000D4A03FB02F2BB68B2FBF3F37B6104E057
:102EBC007B680C4A02FB03F37B617B693B6102E09C
:102ECC00054B3B6100BF3B6918461C37BD4680BCB7
:102EDC00704700BF0010024000127A0058420008F0
:102EEC006842000800093D0080B400AF024B1B682B
:102EFC001846BD4680BC70473400002080B500AF3A
:102F0C00FFF7F2FF0246054B5B681B0A03F0070351
:102F1C000349CB5C22FA03F3184680BD0010024033
:102F2C005042000880B485B000AF78600A4B1B6833
:102F3C000A4AA2FB03235B0A7A6802FB03F3FB60D9
:102F4C0000BFFB685A1EFA60002BF9D100BF00BF0E
:102F5C001437BD4680BC704734000020D34D62103E
:102F6C0080B582B000AF78607B68002B01D1012363
:102F7C0041E07B6893F83D30DBB2002B06D17B68D7
:102F8C00002283F83C207868FEF772FB7B680222F3
:102F9C0083F83D207B681A687B6804331946104619
:102FAC0000F05CFA7B68012283F846207B680122E2
:102FBC0083F83E207B68012283F83F207B68012246
:102FCC0083F840207B68012283F841207B68012232
:102FDC0083F842207B68012283F843207B6801221E
:102FEC0083F844207B68012283F845207B6801220A
:102FFC0083F83D20002318460837BD4680BD0000ED
:10300C0080B485B000AF78607B6893F83D30DBB25C
:10301C00012B01D001233AE07B68022283F83D208A
:10302C007B681B68DA687B681B6842F00102DA6017
:10303C007B681B68184A93420ED07B681B68B3F1FF
:10304C00804F09D07B681B68144A934204D07B687C
:10305C001B68134A934211D17B681B689B6803F071
:10306C000703FB60FB68062B10D07B681B681A6893
:10307C007B681B6842F001021A6007E07B681B68E2
:10308C001A687B681B6842F001021A60002318461C
:10309C001437BD4680BC7047002C01400004004032
:1030AC000008004080B584B000AF78607B681B6876
:1030BC00DB68FB607B681B681B69BB60BB6803F04B
:1030CC000203002B20D0FB6803F00203002B1BD063
:1030DC007B681B686FF002021A617B6801221A7709
:1030EC007B681B689B6903F00303002B03D0786893
:1030FC0000F098F905E0786800F08BF9786800F03A
:10310C009AF97B6800221A77BB6803F00403002B42
:10311C0020D0FB6803F00403002B1BD07B681B68DA
:10312C006FF004021A617B6802221A777B681B68B5
:10313C009B6903F44073002B03D0786800F072F99C
:10314C0005E0786800F065F9786800F074F97B6840
:10315C0000221A77BB6803F00803002B20D0FB6811
:10316C0003F00803002B1BD07B681B686FF0080270
:10317C001A617B6804221A777B681B68DB6903F091
:10318C000303002B03D0786800F04CF905E0786855
:10319C0000F03FF9786800F04EF97B6800221A774E
:1031AC00BB6803F01003002B20D0FB6803F0100366
:1031BC00002B1BD07B681B686FF010021A617B68B8
:1031CC0008221A777B681B68DB6903F44073002BB9
:1031DC0003D0786800F026F905E0786800F019F95A
:1031EC00786800F028F97B6800221A77BB6803F036
:1031FC000103002B0CD0FB6803F00103002B07D05C
:10320C007B681B686FF001021A617868FDF732FF6A
:10321C00BB6803F08003002B0CD0FB6803F0800329
:10322C00002B07D07B681B686FF080021A617868EE
:10323C0000F07FFABB6803F04003002B0CD0FB6856
:10324C0003F04003002B07D07B681B686FF0400233
:10325C001A61786800F0F8F8BB6803F02003002BC3
:10326C000CD0FB6803F02003002B07D07B681B6895
:10327C006FF020021A61786800F052FA00BF103724
:10328C00BD4680BD80B584B000AF78603960002346
:10329C00FB737B6893F83C30012B01D10223B4E023
:1032AC007B68012283F83C207B68022283F83D2056
:1032BC007B681B689B68BB60BB6823F07703BB60B3
:1032CC00BB6823F47F43BB607B681B68BA689A6059
:1032DC003B681B68B3F5005F3ED0B3F5005F00F2AE
:1032EC008780B3F5805F00F08680B3F5805F7FD870
:1032FC00702B1AD0702B7BD8602B50D0602B77D8CA
:10330C00502B3CD0502B73D8402B58D0402B6FD81F
:10331C00302B64D0302B6BD8202B60D0202B67D86F
:10332C00002B5CD0102B5AD062E07B6818683B688D
:10333C0099683B685A683B68DB6800F074F97B68F5
:10334C001B689B68BB60BB6843F07703BB607B6802
:10335C001B68BA689A604FE07B6818683B6899688C
:10336C003B685A683B68DB6800F05DF97B681B685A
:10337C009A687B681B6842F480429A603CE07B68E8
:10338C0018683B6859683B68DB681A4600F0D4F84B
:10339C007B681B685021184600F02BF92CE07B68E9
:1033AC0018683B6859683B68DB681A4600F0F2F80D
:1033BC007B681B686021184600F01BF91CE07B68D9
:1033CC0018683B6859683B68DB681A4600F0B4F82B
:1033DC007B681B684021184600F00BF90CE07B68F9
:1033EC001A683B681B681946104600F002F903E0A6
:1033FC000123FB7300E000BF7B68012283F83D20B2
:10340C007B68002283F83C20FB7B18461037BD46B6
:10341C0080BD80B483B000AF786000BF0C37BD4670
:10342C0080BC704780B483B000AF786000BF0C37AD
:10343C00BD4680BC704780B483B000AF786000BFDD
:10344C000C37BD4680BC704780B483B000AF786049
:10345C0000BF0C37BD4680BC7047000080B485B0FF
:10346C0000AF786039607B681B68FB607B682F4A13
:10347C0093420BD07B68B3F1804F07D07B682C4A0A
:10348C00934203D07B682B4A934208D1FB6823F00C
:10349C007003FB603B685B68FA681343FB607B68F6
:1034AC00224A93420BD07B68B3F1804F07D07B68E4
:1034BC001F4A934203D07B681E4A934208D1FB6893
:1034CC0023F44073FB603B68DB68FA681343FB60D2
:1034DC00FB6823F080023B685B691343FB607B68ED
:1034EC00FA681A603B689A687B68DA623B681A680B
:1034FC007B689A627B680D4A934203D13B681A69D8
:10350C007B681A637B6801225A617B681B6903F034
:10351C000103002B05D07B681B6923F001027B683B
:10352C001A6100BF1437BD4680BC7047002C0140A7
:10353C00000400400008004080B487B000AFF86081
:10354C00B9607A60FB681B6A7B61FB681B6A23F0BD
:10355C000102FB681A62FB689B693B613B6923F0C3
:10356C00F0033B617B681B013A6913433B617B6948
:10357C0023F00A037B617A69BB6813437B61FB68A8
:10358C003A699A61FB687A691A6200BF1C37BD46BA
:10359C0080BC704780B487B000AFF860B9607A60C7
:1035AC00FB681B6A7B61FB681B6A23F01002FB68DB
:1035BC001A62FB689B693B613B6923F470433B6176
:1035CC007B681B033A6913433B617B6923F0A003BF
:1035DC007B61BB681B017A6913437B61FB683A69A9
:1035EC009A61FB687A691A6200BF1C37BD4680BCC1
:1035FC00704780B485B000AF786039607B689B6899
:10360C00FB60FB6823F07003FB603A68FB681343B4
:10361C0043F00703FB607B68FA689A6000BF1437BD
:10362C00BD4680BC704780B487B000AFF860B9600D
:10363C007A603B60FB689B687B617B6923F47F430A
:10364C007B613B681A027B681A43BB6813437A6937
:10365C0013437B61FB687A699A6000BF1C37BD46D7
:10366C0080BC704780B485B000AF786039607B68EF
:10367C0093F83C30012B01D1022346E07B680122F8
:10368C0083F83C207B68022283F83D207B681B6812
:10369C005B68FB607B681B689B68BB60FB6823F006
:1036AC007003FB603B681B68FA681343FB607B6824
:1036BC001B68FA685A607B681B68164A93420ED0E6
:1036CC007B681B68B3F1804F09D07B681B68124A7A
:1036DC00934204D07B681B68104A93420CD1BB68A0
:1036EC0023F08003BB603B685B68BA681343BB6024
:1036FC007B681B68BA689A607B68012283F83D205E
:10370C007B68002283F83C20002318461437BD4602
:10371C0080BC7047002C01400004004000080040B1
:10372C0080B483B000AF786000BF0C37BD4680BC5E
:10373C00704780B483B000AF786000BF0C37BD46D3
:10374C0080BC7047024B0146186800F02DB800BFD2
:10375C0040000020024B0146186800F017B900BF6A
:10376C004000002070B50F4E0C463168054611B96B
:10377C0000F0D0F830602146284600F0CBF8431C0E
:10378C0003D14FF0FF34204670BDC41C24F0030459
:10379C00A042F8D0211A284600F0BCF80130F2D132
:1037AC00EFE700BF080200202DE9F843CD1C25F0FF
:1037BC00030508350C2D38BF0C25002D064601DB02
:1037CC00A94204D90C2333600020BDE8F883DFF84C
:1037DC00D48000F069F8D8F800301C4644BB294668
:1037EC003046FFF7BFFF431C044658D1D8F80040C1
:1037FC002746002F43D1002C4BD023683946304646
:10380C0004EB030900F086F8814542D1216830466B
:10381C006D1A2946FFF7A6FF01303AD023682B44D6
:10382C002360D8F800305A6862BBC8F800700FE00B
:10383C002268521B20D40B2A17D96119A342256088
:10384C0018BF5960636808BFC8F8001062514B601C
:10385C00304600F02FF804F10B00231D20F0070078
:10386C00C21A1CBF1B1AA350AFE76268A3420CBF5D
:10387C00C8F800205A60EBE723466468AEE73C4684
:10388C007F68B6E71A465B68A342FBD100235360FE
:10389C00DEE70C233046336000F00CF894E705604B
:1038AC00D6E700BF0C020020014800F06DB800BF45
:1038BC004C030020014800F068B800BF4C03002006
:1038CC000EB46FF0004110B500249DB01FAB0290F8
:1038DC000690079104910948094953F8042B059166
:1038EC00006802A901931B9400F0F4F8029B1C7071
:1038FC001DB0BDE8104003B0704700BF4000002071
:10390C000802FFFF03460244934200D1704703F8BC
:10391C00011BF9E738B50023054D044608462B601A
:10392C00FDF700FF431C02D12B6803B1236038BDA7
:10393C0048030020014B1868704700BF400000206E
:10394C0070B500260C4D0D4C641BA410A64209D179
:10395C0000F0B8FB00260A4D0A4C641BA410A642CA
:10396C0005D170BD55F8043B98470136EEE755F884
:10397C00043B98470136F2E7A0420008A042000839
:10398C00A0420008A44200087047704738B50546AD
:10399C00002940D051F8043C0C1F002BB8BFE41890
:1039AC00FFF782FF1C4A136833B963601460284622
:1039BC00BDE83840FFF77EBFA34208D92068211824
:1039CC008B4201BF19685B6809182160EDE71A4644
:1039DC005B680BB1A342FAD911685018A0420BD105
:1039EC0020680144501883421160E0D118685B686C
:1039FC00084410605360DAE702D90C232B60D6E739
:103A0C00206821188B4201BF19685B680918216076
:103A1C0063605460CBE738BD0C0200202DE9F04701
:103A2C001F468E688246BE420C4690460B682DD8C7
:103A3C00B1F90C2012F4906F26D06569096905EB79
:103A4C004505A3EB010905EBD5757B1C4B446D10AB
:103A5C009D4238BF1D46530527D52946FFF7A4FEC6
:103A6C00064660B34A46216900F0E8FAA38923F4BC
:103A7C00906343F08003A38126614E4426603E464A
:103A8C006561A5EB0905A560BE4200D93E463246EC
:103A9C004146206800F0AAFA0020A3689B1BA36093
:103AAC00236833442360BDE8F0872A4600F0D4FA3B
:103ABC0006460028E0D150462169FFF767FF0C232A
:103ACC00CAF80030A3894FF0FF3043F04003A381C4
:103ADC00E9E700002DE9F04F98468B8907461B0655
:103AEC000D4614469DB010D50B6973B94021FFF7F4
:103AFC005BFE2860286130B90C233B604FF0FF302F
:103B0C001DB0BDE8F08F40236B6100230993202387
:103B1C008DF8293030234FF00109CDF80C80DFF8F7
:103B2C0098818DF82A3023469A4613F8012B0AB156
:103B3C00252AF9D1BAEB040B0BD05B462246294659
:103B4C003846FFF76BFF013000F0A780099A5A4402
:103B5C0009929AF80030002B00F09F8000234FF060
:103B6C00FF32CDE905230AF1010A049307938DF87E
:103B7C0053301A935446052214F8011B4E4800F09A
:103B8C004FFA049AD8B9D00644BF20238DF853308D
:103B9C00110744BF2B238DF853309AF800302A2B91
:103BAC0015D0544600204FF00A0C079A214611F804
:103BBC00013B303B092B4BD9B0B1079214E0A0EB81
:103BCC00080309FA03F31343A2460493D2E7039BB9
:103BDC00191D1B680391002BBBBF5B4242F0020214
:103BEC0007930793B8BF049223782E2B0AD16378DE
:103BFC002A2B32D1039B02341A1D1B68039243EA11
:103C0C00E3730593DFF8B4A003225046217800F04B
:103C1C0007FA38B14022049BA0EB0A008240134300
:103C2C000134049314F8011B062225488DF8281042
:103C3C0000F0F6F9002836D0224B1BBB039B073350
:103C4C0023F0070308330393099B334409936AE772
:103C5C000C4601200CFB0232A8E700234FF00A0CA3
:103C6C00194601340593204610F8012B303A092AE5
:103C7C0003D9002BC6D00591C4E7044601230CFBE5
:103C8C000121F0E703AB00932A4638460E4B04A9FA
:103C9C00AFF30080421C0646D6D1AB895B063FF5DC
:103CAC002DAF09982CE703AB00932A463846064BF8
:103CBC0004A900F07DF8EDE76A42000870420008A4
:103CCC007442000800000000293A00082DE9F04772
:103CDC00164698468A680B6907469342B8BF134646
:103CEC00336091F843200C46DDF820900AB1013383
:103CFC0033602368990642BF33680233336025680A
:103D0C0015F0060506D104F1190AE36832689B1A0E
:103D1C00AB422BDC94F843302268003B18BF0123E4
:103D2C00920630D44146384604F14302C84701306C
:103D3C0023D02368226903F00603042B14BF00254B
:103D4C0033684FF0000608BFE56804F11A0408BF99
:103D5C00ED1A54F8123C08BF25EAE5759342C4BF2E
:103D6C009B1AED18B5421AD1002008E001235246E7
:103D7C0041463846C847013003D14FF0FF30BDE80B
:103D8C00F0870135C1E73020E11881F843005A1C57
:103D9C0094F845102244023382F84310C2E7012301
:103DAC00224641463846C8470130E6D00136D9E7AD
:103DBC002DE9FF470F7E9146782F80460C469A4698
:103DCC000C9E01F1430207D8622F0AD8002F00F095
:103DDC00D180582F00F0B88004F1420684F842706C
:103DEC003AE0A7F16303152BF6D801A151F823F0A3
:103DFC00553E0008693E0008E53D0008E53D000819
:103E0C00E53D0008E53D0008693E0008E53D000879
:103E1C00E53D0008E53D0008E53D0008673F00086A
:103E2C00933E0008213F0008E53D0008E53D0008F1
:103E3C00893F0008E53D0008933E0008E53D000879
:103E4C00E53D0008293F000833681A1D1B683260E5
:103E5C0004F1420684F8423001239CE03368206868
:103E6C00191D3160060601D51D6803E04506FBD51A
:103E7C00B3F90050002D03DA2D236D4284F8433042
:103E8C000A23584811E021683368080653F8045B8C
:103E9C0002D4490648BFADB26F2F336014BF0A235A
:103EAC0008235048002184F843106668002EA66051
:103EBC0005DB21682E4321F0040121604BD016460E
:103ECC00B5FBF3F103FB1157C75D06F8017D2F46D7
:103EDC00BB420D46F4D9082B0BD12368DF0708D55C
:103EEC00236961689942DEBF302306F8013C06F174
:103EFC00FF36921B22614B4621464046CDF800A06E
:103F0C0003AAFFF7E3FE01304AD14FF0FF3004B0B3
:103F1C00BDE8F087236843F02003236078273248FC
:103F2C0084F84570236831681F0651F8045B02D48D
:103F3C005F0648BFADB23160D90744BF43F02003E0
:103F4C0023601DB11023ADE72648E9E7236823F071
:103F5C0020032360F6E71646BDE733682568181D75
:103F6C00616930602E061B6801D5196002E0680695
:103F7C00FBD51980002316462361BCE7336800216A
:103F8C001A1D32601E686268304600F049F808B1AC
:103F9C00801B606063682361002384F84330AAE7C8
:103FAC003246494640462369D0470130ADD023689C
:103FBC009B0713D4E068039B9842B8BF1846A6E74A
:103FCC000123324649464046D04701309DD0013549
:103FDC00E36803995B1AAB42F2DCEBE7002504F1D2
:103FEC001906F5E77B4200088C420008884210B5A0
:103FFC0001EB020402D98442234607D8431EA14296
:10400C0008D011F8012B03F8012FF8E70146024400
:10401C008A4200D110BD13F8014D02F8014DF7E7AB
:10402C00034610B5C9B202449342184601D1002090
:10403C0003E0047801338C42F6D110BD0A4491425E
:10404C0000F1FF3300D1704710B511F8014B9142CC
:10405C0003F8014FF9D110BD2DE9F0410746144684
:10406C000D4621B91146BDE8F041FFF79DBB2AB9B9
:10407C00FFF78CFC25462846BDE8F08100F01AF8C5
:10408C008442064602D8B4EB500FF4D82146384689
:10409C00FFF78AFB804608B94546ECE7B442224656
:1040AC00294628BF3246FFF7C9FF29463846FFF795
:1040BC006DFCF1E751F8043C181F002BBCBF0B58EA
:1040CC00C0187047F8B500BFF8BC08BC9E467047D6
:0C40DC00F8B500BFF8BC08BC9E46704759
:1040E800282B2900282D29002053657420523120BF
:1040F80052656420257300002053657420523120D6
:1041080059656C20257300002053657420523120B6
:1041180047726E20257300002053657420523220A8
:1041280052656420257300002053657420523220A4
:1041380059656C2025730000205365742052322085
:1041480047726E2025730000303030303030303008
:104158003030000056616C75653A20256400000017
:1041680020522053796E63204572726F7220256445
:1041780073000000313A20536B69702C20323A20CA
:10418800466978205232000020472F592053796E13
:1041980063204572726F722025647300313A205390
:1041A8006B69702C20323A204669782047593200D2
:1041B8004E6F7468696E6720657272004E6F74681E
:1041C800696E670056616C756520436F6E6669722B
:1041D8006D656400204D414E55414C5F4D4F44453F
:1041E8000000000020524544313A202564000000B8
:1041F80020524544313A202564202000204752456A
:10420800313A2025642020002059454C313A202598
:104218006420200020475245323A202564000000DF
:104228002059454C323A202564202000205245442C
:10423800323A202564202000000000000000000021
:104248000102030406070809000000000102030434
:1042580002030405060708090A0B0C0D0E0F1010BF
:104268000102232D302B2000686C4C0065666745E1
:1042780046470030313233343536373839414243D6
:104288004445460030313233343536373839616287
:0842980063646566000000008C
:0442A00031010008E0
:0442A4000D01000800
:1042A80002000000010000000500000003000000FB
:1042B80003000000060000000200000003000000E8
:1042C80005000000030000000100000001010100DA
:1042D8000101010000127A00100000000100000036
:1042E8004400002000000000100200207802002096
:1042F800E0020020000000000000000000000000B4
:1043080000000000000000000000000000000000A5
:104318000000000000000000000000000000000095
:104328000000000000000000000000000000000085
:04000005080017A92F
:00000001FF
