:020000040800F2
:1000000000500020452D0008692C00086F2C0008C6
:10001000752C00087B2C0008812C000800000000D3
:10002000000000000000000000000000872C000815
:10003000932C0008000000009F2C0008AB2C000847
:100040008D2D00088D2D00088D2D00088D2D0008A8
:100050008D2D00088D2D00088D2D00088D2D000898
:100060008D2D00088D2D00088D2D00088D2D000888
:100070008D2D00088D2D00088D2D00088D2D000878
:100080008D2D00088D2D00088D2D00088D2D000868
:100090008D2D00088D2D00088D2D00088D2D000858
:1000A0008D2D00088D2D00088D2D00088D2D000848
:1000B000B92C00088D2D00088D2D00088D2D00080D
:1000C0008D2D00088D2D00088D2D00088D2D000828
:1000D0008D2D00088D2D00088D2D00088D2D000818
:1000E0008D2D00088D2D00088D2D000800000000CA
:1000F0000000000000000000000000000000000000
:0C01000000000000000000005FF808F1A3
:10010C0010B5054C237833B9044B13B10448AFF345
:10011C0000800123237010BDA80000200000000007
:10012C001056000808B5034B1BB103490348AFF345
:10013C00008008BD00000000AC0000201056000834
:10014C0080B500AF9B4B1B78022B40F028819A4B5B
:10015C001B78042B00F21F8101A252F823F000BF80
:10016C0081010008C70100083F020008B70200081F
:10017C002D030008914B1B68914A1360914B1B682F
:10018C00914A1360002001F0B3FF012001F0F4FF4D
:10019C00894B01221A7001F017FF8A4B1B684FF430
:1001AC007A7202FB03F31946002002F04BFC4FF469
:1001BC007A71012002F046FCFAE0002001F098FF71
:1001CC00012001F0D9FF012002F08CFC0346012B29
:1001DC0010D101F0F9FE7A4B1B68013B784A136091
:1001EC00794B1B68013B784A13604FF47A710120FC
:1001FC0002F028FC002002F075FC0346012B40F0B5
:10020C00D0806D4B02221A70704B1B686C4A1360C5
:10021C006E4B1B686C4A13606C4B1B684FF47A7204
:10022C0002FB03F31946002002F00CFC01F0CCFE9B
:10023C00B7E0002001F05CFF022001F09DFF0120DF
:10024C0002F050FC0346012B10D101F0BDFE5C4BBB
:10025C001B68013B5A4A13605B4B1B68013B5A4AB3
:10026C0013604FF47A71012002F0ECFB002002F0D5
:10027C0039FC0346012B40F096804F4B03221A7039
:10028C00534B1B684E4A1360524B1B684E4A13600B
:10029C004F4B1B684FF47A7202FB03F31946002094
:1002AC0002F0D0FB01F090FE7DE0012001F020FF78
:1002BC00002001F061FF012002F014FC0346012B29
:1002CC0010D101F081FE3E4B1B68013B3C4A136090
:1002DC003D4B1B68013B3C4A13604FF47A71012083
:1002EC0002F0B0FB002002F0FDFB0346012B5CD1B9
:1002FC00314B04221A70384B1B68314A1360364B51
:10030C001B68314A1360344B1B684FF47A7202FB42
:10031C0003F31946002002F095FB01F055FE44E072
:10032C00022001F0E5FE002001F026FF012002F082
:10033C00D9FB0346012B10D101F046FE204B1B6864
:10034C00013B1F4A1360204B1B68013B1E4A136084
:10035C004FF47A71012002F075FB002002F0C2FB11
:10036C000346012B23D1144B01221A70134B1B682B
:10037C00134A1360134B1B68134A1360114B1B6811
:10038C004FF47A7202FB03F31946002002F05AFB79
:10039C0001F01AFE0BE0084B01221A7008E000BFB6
:1003AC0006E000BF04E000BF02E000BF00E000BFB9
:1003BC0080BD00BFC4000020C60000200C0000203F
:1003CC002400002020000020280000201C00002019
:1003DC0014000020180000201000002080B500AF91
:1003EC001B4B1B78032B2FD11A4B1B78072B2DD8AB
:1003FC0001A252F823F000BF250400082B040008CA
:10040C0031040008370400083D04000843040008C8
:10041C00490400084F04000800F01EF817E000F033
:10042C00CFF814E000F080F911E000F031FA0EE0A2
:10043C0000F042FB0BE000F0F3FB08E000F04CFD99
:10044C0005E000F00BFE02E000BF00E000BF80BD45
:10045C00C4000020C700002080B582B000AF00208F
:10046C0001F0FEFA0346002B35D04D4B01221A70D9
:10047C004C4B01221A604C4802F0C2FA78607B683F
:10048C00B3F1FF3F04D07B68DBB2184602F094F95D
:10049C00464802F0B5FA78607B68B3F1FF3F04D0B0
:1004AC007B68DBB2184602F087F901F017FC0320D9
:1004BC0001F01EFE032001F05FFEFA22FA213C48F7
:1004CC0002F0AAF8002001F009FB012001F006FB64
:1004DC00022001F003FB012001F0C2FA0346002BBD
:1004EC0021D0344B1B68012B0CD12E4B1B680133D4
:1004FC002C4A13602B4B1B68632B0FDD294B0122FD
:10050C001A600BE0274B1B68013B264A1360254BF6
:10051C001B68002B02DC234B63221A6001F0DEFB0C
:10052C00012001F0DBFA012001F0B0FA0346002BA8
:10053C000FD0204B1B68012B03D11E4B00221A60DD
:10054C0002E01C4B01221A6001F0C8FB012001F0F3
:10055C00C5FA012001F0AEFA0346002B07D00022A9
:10056C006421154802F058F8012001F0B7FA022076
:10057C0001F076FA0346002B0ED00A4B1B680F4A8B
:10058C00136001F091FC00224FF4FA61074802F06D
:10059C0043F8022001F0A2FA00BF0837BD4680BD27
:1005AC00C70000200800002015220008E91C0008E4
:1005BC00312200080400002055120008C800002059
:1005CC0080B582B000AF002001F04AFA0346002B40
:1005DC0035D04D4B02221A704C4B01221A604C48FC
:1005EC0002F00EFA78607B68B3F1FF3F04D07B68B1
:1005FC00DBB2184602F0E0F8464802F001FA7860E7
:10060C007B68B3F1FF3F04D07B68DBB2184602F085
:10061C00D3F801F063FB032001F06AFD032001F025
:10062C00ABFDFA22FA213C4801F0F6FF002001F064
:10063C0055FA012001F052FA022001F04FFA012084
:10064C0001F00EFA0346002B21D0344B1B68012B12
:10065C000CD12E4B1B6801332C4A13602B4B1B689F
:10066C00632B0FDD294B01221A600BE0274B1B6813
:10067C00013B264A1360254B1B68002B02DC234BE5
:10068C0063221A6001F02AFB012001F027FA0120F5
:10069C0001F0FCF90346002B0FD0204B1B68012BFB
:1006AC0003D11E4B00221A6002E01C4B01221A607F
:1006BC0001F014FB012001F011FA012001F0FAF90C
:1006CC000346002B07D000226421154801F0A4FF3B
:1006DC00012001F003FA022001F0C2F90346002BBD
:1006EC000ED00A4B1B680F4A136001F0DDFB002291
:1006FC004FF4FA61074801F08FFF022001F0EEF988
:10070C0000BF0837BD4680BDC70000200800002090
:10071C0031220008E91C00084522000804000020D2
:10072C0055120008CC00002080B582B000AF00202C
:10073C0001F096F90346002B35D04D4B03221A706D
:10074C004C4B01221A604C4802F05AF978607B68D5
:10075C00B3F1FF3F04D07B68DBB2184602F02CF8F3
:10076C00464802F04DF978607B68B3F1FF3F04D046
:10077C007B68DBB2184602F01FF801F0AFFA0320D9
:10078C0001F0B6FC032001F0F7FCFA22FA213C48F8
:10079C0001F042FF002001F0A1F9012001F09EF9C7
:1007AC00022001F09BF9012001F05AF90346002BBD
:1007BC0021D0344B1B68012B0CD12E4B1B68013301
:1007CC002C4A13602B4B1B68632B0FDD294B01222A
:1007DC001A600BE0274B1B68013B264A1360254B24
:1007EC001B68002B02DC234B63221A6001F076FAA3
:1007FC00012001F073F9012001F048F90346002BA8
:10080C000FD0204B1B68012B03D11E4B00221A600A
:10081C0002E01C4B01221A6001F060FA012001F089
:10082C005DF9012001F046F90346002B07D00022A8
:10083C006421154801F0F0FE012001F04FF902206F
:10084C0001F00EF90346002B0ED00A4B1B680F4A21
:10085C00136001F029FB00224FF4FA61074801F004
:10086C00DBFE022001F03AF900BF0837BD4680BD1F
:10087C00C70000200800002045220008E91C0008E1
:10088C00592200080400002055120008D000002056
:10089C0080B582B000AF002001F0E2F80346002BD7
:1008AC0035D0774B04221A70764B01221A607648A9
:1008BC0002F0A6F878607B68B3F1FF3F04D07B6848
:1008CC00DBB2184601F078FF704802F099F87860B6
:1008DC007B68B3F1FF3F04D07B68DBB2184601F0B4
:1008EC006BFF01F0FBF9032001F002FC032001F087
:1008FC0043FCFA22FA21664801F08EFE002001F03A
:10090C00EDF8012001F0EAF8022001F0E7F80120EF
:10091C0001F0A6F80346002B21D05E4B1B68012B7F
:10092C000CD1584B1B680133564A1360554B1B684E
:10093C00632B0FDD534B01221A600BE0514B1B68EC
:10094C00013B504A13604F4B1B68002B02DC4D4B94
:10095C0063221A6001F0C2F9012001F0BFF80120F6
:10096C0001F094F80346002B0FD04A4B1B68012B67
:10097C0003D1484B00221A6002E0464B01221A6058
:10098C0001F0ACF9012001F0A9F8012001F092F876
:10099C000346002B07D0002264213F4801F03CFEA7
:1009AC00012001F09BF8022001F05AF80346002BBD
:1009BC0062D0344B1B68394A1360394B1B68002BCF
:1009CC0049D0384B1B68002B45D0354B1A68354B3A
:1009DC001B681A44314B1B689A423CD0284B0622A8
:1009EC001A70314B03221A60274802F009F838605C
:1009FC003B68B3F1FF3F04D03B68DBB2184601F013
:100A0C00DBFE224801F0FCFF38603B68B3F1FF3F8E
:100A1C0004D03B68DBB2184601F0CEFE032001F097
:100A2C0067FB032001F0A8FB4FF47A720A211F48E0
:100A3C0001F0F2FDFA22FA211D4801F0EDFDFA2237
:100A4C00FA21114801F0E8FD002240F6B8311948AE
:100A5C0001F0E2FD07E001F027FA00224FF4FA6101
:100A6C000A4801F0D9FD002001F038F8012001F00E
:100A7C0035F8022001F032F800BF0837BD4680BDC2
:100A8C00C70000200800002059220008E91C0008BB
:100A9C00792200080400002055120008D400002020
:100AAC00D0000020CC00002000000020E91D000830
:100ABC0015220008C512000880B582B000AF0020D6
:100ACC0000F0CEFF0346002B35D04D4B05221A709B
:100ADC004C4B01221A604C4801F092FF78607B6805
:100AEC00B3F1FF3F04D07B68DBB2184601F064FE23
:100AFC00464801F085FF78607B68B3F1FF3F04D076
:100B0C007B68DBB2184601F057FE01F0E7F80320D2
:100B1C0001F0EEFA032001F02FFBFA22FA213C48F7
:100B2C0001F07AFD002000F0D9FF012000F0D6FF83
:100B3C00022000F0D3FF012000F092FF0346002BAF
:100B4C0021D0344B1B68012B0CD12E4B1B6801336D
:100B5C002C4A13602B4B1B68632B0FDD294B012296
:100B6C001A600BE0274B1B68013B264A1360254B90
:100B7C001B68002B02DC234B63221A6001F0AEF8D9
:100B8C00012000F0ABFF012000F080FF0346002B9A
:100B9C000FD0204B1B68012B03D11E4B00221A6077
:100BAC0002E01C4B01221A6001F098F8012000F0C1
:100BBC0095FF012000F07EFF0346002B07D000229A
:100BCC006421154801F028FD012000F087FF022068
:100BDC0000F046FF0346002B0ED00A4B1B680F4A51
:100BEC00136001F061F900224FF4FA61074801F03B
:100BFC0013FD022000F072FF00BF0837BD4680BD18
:100C0C00C70000200800002079220008E91C000819
:100C1C00912200080400002055120008D800002082
:100C2C0080B582B000AF002000F01AFF0346002B05
:100C3C006AD0914801F0E4FE78607B68B3F1FF3F25
:100C4C0004D07B68DBB2184601F0B6FD8B4801F08E
:100C5C00D7FE78607B68B3F1FF3F04D07B68DBB2D2
:100C6C00184601F0A9FD864B1B68002B2BD0854B39
:100C7C001B68002B27D0844B1B68002B23D0834B85
:100C8C001B68002B1FD0824B1B68002B1BD0814B89
:100C9C001B68002B17D07A4B1B687F4A1360794B6B
:100CAC001B687E4A1360784B1B687D4A1360774B38
:100CBC001B687C4A1360764B1B687B4A1360754B30
:100CCC001B687A4A13606E4B00221A606D4B00222F
:100CDC001A606D4B00221A606C4B00221A606C4B30
:100CEC0000221A606B4B00221A60714B02221A70A0
:100CFC00704B00221A70002000F0F0FE012000F072
:100D0C00EDFE022000F0EAFE012000F0A9FE0346F1
:100D1C00002B21D0684B1B68012B0CD1674B1B6837
:100D2C000133664A1360654B1B68632B0FDD634B05
:100D3C0001221A600BE0614B1B68013B5F4A136098
:100D4C005E4B1B68002B02DC5C4B63221A6000F0CC
:100D5C00C5FF012000F0C2FE012000F097FE034603
:100D6C00002B0FD0544B1B68012B03D1524B00228C
:100D7C001A6002E0504B01221A6000F0AFFF012014
:100D8C0000F0ACFE012000F095FE0346002B07D0CE
:100D9C00002264214A4801F03FFC012000F09EFE35
:100DAC00022000F05DFE0346002B61D0434B1B6814
:100DBC00384A1360324B1B68002B48D0354B1B68EC
:100DCC00002B44D0324B1B68002B40D0314B1A689F
:100DDC002F4B1B681A442A4B1B689A4237D0394B4D
:100DEC0007221A70384B03221A60234801F008FEC0
:100DFC0038603B68B3F1FF3F04D03B68DBB2184668
:100E0C0001F0DAFC1D4801F0FBFD38603B68B3F1E2
:100E1C00FF3F04D03B68DBB2184601F0CDFC01204B
:100E2C0001F066F9022001F0A7F94FF47A720A2159
:100E3C00264801F0F1FBFA22FA21254801F0ECFBDF
:100E4C00002240F6B831234801F0E6FB07E001F040
:100E5C002BF800224FF4FA61084801F0DDFB00206A
:100E6C0000F03CFE012000F039FE022000F036FEBE
:100E7C0000BF0837BD4680BD91220008E91C000860
:100E8C00C8000020CC000020D0000020D40000209E
:100E9C00D8000020DC0000200C00002010000020F6
:100EAC0014000020180000201C000020200000204E
:100EBC00C4000020C6000020040000200800002010
:100ECC0055120008C700002000000020E91D000892
:100EDC00A52200087113000880B582B000AF002075
:100EEC0000F0BEFD0346002B4FD0554B04221A7068
:100EFC00544B01221A60544801F082FD78607B68E3
:100F0C00B3F1FF3F04D07B68DBB2184601F054FC10
:100F1C004E4801F075FD78607B68B3F1FF3F04D05B
:100F2C007B68DBB2184601F047FC494801F068FDCC
:100F3C0078607B68B3F1FF3F04D07B68DBB2184666
:100F4C0001F03AFC434801F05BFD78607B68B3F13B
:100F5C00FF3F04D07B68DBB2184601F02DFC00F09B
:100F6C00BDFE032001F0C4F8032001F005F9FA22BC
:100F7C00FA21394801F050FB002000F0AFFD0120B0
:100F8C0000F0ACFD022000F0A9FD012000F068FD8E
:100F9C000346002B4FD02A4B03221A70294B0122F7
:100FAC001A60294801F02CFD38603B68B3F1FF3F13
:100FBC0004D03B68DBB2184601F0FEFB234801F07D
:100FCC001FFD38603B68B3F1FF3F04D03B68DBB2D8
:100FDC00184601F0F1FB1E4801F012FD38603B6829
:100FEC00B3F1FF3F04D03B68DBB2184601F0E4FBE1
:100FFC00184801F005FD38603B68B3F1FF3F04D0A1
:10100C003B68DBB2184601F0D7FB00F067FE03200B
:10101C0001F06EF8032001F0AFF8FA22FA210B4828
:10102C0001F0FAFA002000F059FD012000F056FD05
:10103C00022000F053FD00BF0837BD4680BD00BF45
:10104C00C7000020080000201522000859220008C3
:10105C00C5120008E91D00087922000880B582B08D
:10106C0000AF002000F0FCFC0346002B77D0624858
:10107C0001F0C6FC78607B68B3F1FF3F04D07B685D
:10108C00DBB2184601F098FB5C4801F0B9FC7860C3
:10109C007B68B3F1FF3F04D07B68DBB2184601F0EC
:1010AC008BFB574801F0ACFC78607B68B3F1FF3FD9
:1010BC0004D07B68DBB2184601F07EFB514B1B68F9
:1010CC00002B2BD0504B1B68002B27D04F4B1B6891
:1010DC00002B23D04E4B1B68002B1FD04D4B1B6895
:1010EC00002B1BD04C4B1B68002B17D0454B1B689F
:1010FC004A4A1360444B1B68494A1360434B1B68B4
:10110C00484A1360424B1B68474A1360414B1B68AB
:10111C00464A1360404B1B68454A1360394B00220A
:10112C001A60394B00221A60384B00221A60384B77
:10113C0000221A60374B00221A60374B00221A60CB
:10114C003C4B02221A703C4B00221A70002000F01B
:10115C00C5FC012000F0C2FC022000F0BFFC012005
:10116C0000F07EFC0346002B42D0344B04221A7054
:10117C00334B01221A6000F0B1FD032000F0B8FFE0
:10118C00032000F0F9FF1C4801F03AFC38603B6882
:10119C00B3F1FF3F04D03B68DBB2184601F00CFB07
:1011AC00164801F02DFC38603B68B3F1FF3F04D0CA
:1011BC003B68DBB2184601F0FFFA114801F020FC45
:1011CC0038603B68B3F1FF3F04D03B68DBB2184694
:1011DC0001F0F2FAFA22FA211A4801F01DFA002065
:1011EC0000F07CFC012000F079FC022000F076FC81
:1011FC0000BF0837BD4680BDA5220008711300084A
:10120C00E91D0008C8000020CC000020D000002000
:10121C00D4000020D8000020DC0000200C000020AE
:10122C001000002014000020180000201C000020DA
:10123C0020000020C4000020C6000020C7000020B1
:10124C00080000207922000880B500AF012000F0D2
:10125C0031FC0346002B08D000224FF49671134842
:10126C0001F0DAF9012000F039FC114B1B68012B5D
:10127C000CD1104B1B6801330E4A13600D4B1B68CD
:10128C00632B0FDD0B4B01221A600BE0094B1B6823
:10129C00013B084A1360074B1B68002B02DC054B13
:1012AC0063221A6000F01AFD00BF80BD55120008C1
:1012BC00040000200800002080B582B000AF234B52
:1012CC0004221A70224B01221A60224801F098FB6A
:1012DC0078607B68B3F1FF3F04D07B68DBB21846C3
:1012EC0001F06AFA1C4801F08BFB78607B68B3F163
:1012FC00FF3F04D07B68DBB2184601F05DFA17485B
:10130C0001F07EFB78607B68B3F1FF3F04D07B6813
:10131C00DBB2184601F050FA00F0E0FC032000F0BC
:10132C00E7FE032000F028FFFA22FA210C4801F016
:10133C0073F9002000F0D2FB012000F0CFFB02205B
:10134C0000F0CCFB00BF0837BD4680BDC7000020B5
:10135C00080000201522000859220008E91D000889
:10136C007922000880B582B000AF374801F048FB05
:10137C0078607B68B3F1FF3F04D07B68DBB2184622
:10138C0001F01AFA314801F03BFB78607B68B3F14D
:10139C00FF3F04D07B68DBB2184601F00DFA2C4BF2
:1013AC001B68002B2BD02B4B1B68002B27D02A4BF8
:1013BC001B68002B23D0294B1B68002B1FD0284BFC
:1013CC001B68002B1BD0274B1B68002B17D0204B06
:1013DC001B68254A13601F4B1B68244A13601E4B65
:1013EC001B68234A13601D4B1B68224A13601C4B5D
:1013FC001B68214A13601B4B1B68204A1360144B5B
:10140C0000221A60134B00221A60134B00221A6040
:10141C00124B00221A60124B00221A60114B002250
:10142C001A60174B02221A70164B00221A700020F9
:10143C0000F054FB012000F051FB022000F04EFBA9
:10144C0000BF0837BD4680BDA5220008E91D000875
:10145C00C8000020CC000020D0000020D4000020C8
:10146C00D8000020DC0000200C0000201000002020
:10147C0014000020180000201C0000202000002078
:10148C00C4000020C600002080B500AF344B1B7890
:10149C00012B5BD1334B1B78032B53D801A252F891
:1014AC0023F000BFC1140008ED1400080915000852
:1014BC003515000800F008FF012000F0D1FA0346B2
:1014CC00002B45D0274B01221A704FF4FA610220F1
:1014DC0001F0B8FA00F060FD012000F0FFFA37E0EF
:1014EC0000F0FCFE022001F0FDFA0346012B31D185
:1014FC001C4B02221A7000F04FFD2BE000F0F8FE9E
:10150C00012000F0ADFA0346002B25D0154B032229
:10151C001A704FF4FA61022001F094FA00F03CFDCD
:10152C00012000F0DBFA17E000F0ECFE022001F0E5
:10153C00D9FA0346012B11D10A4B00221A7000F084
:10154C002BFD0BE0074B00221A7008E000BF06E0F1
:10155C0000BF04E000BF02E000BF00E000BF80BDA0
:10156C00C4000020C500002080B500AF0D4B1B78D7
:10157C00032B14D801A252F823F000BF99150008D0
:10158C00A51500089F150008AB15000800F00CF815
:10159C0006E000F029F803E000F08EF800E000BF50
:1015AC0000BF80BDC400002080B500AF032000F058
:1015BC009FFD032000F0E0FD00F078FB002000F020
:1015CC004FFA0346002B08D0054B02221A70054B2C
:1015DC0000221A70002000F081FA00BF80BD00BF0D
:1015EC00C4000020C600002080B500AF002000F031
:1015FC0037FA0346002B18D0294B03221A70294BBB
:10160C0000221A70284B01221A6000F067FB03209D
:10161C0000F06EFD032000F0AFFDFA22FA21234802
:10162C0000F0FAFF002000F059FA022000F018FA3E
:10163C000346002B32D01A4B01221A701C4B1B781C
:10164C00013B032B24D801A252F823F069160008A1
:10165C0071160008831600088B160008154B002223
:10166C001A7019E0134B01221A704FF4FA61022020
:10167C0001F0E8F910E00F4B02221A700CE00D4B50
:10168C0003221A704FF4FA61022001F0DBF903E037
:10169C00084B00221A7000BF00F07EFC00BF80BD1A
:1016AC00C4000020C70000200800002015220008FC
:1016BC00C6000020C500002080B500AF002000F05F
:1016CC00CFF90346002B18D0204B03221A70204B65
:1016DC0000221A701F4B01221A6000F0FFFA03203F
:1016EC0000F006FD032000F047FDFA22FA211A480B
:1016FC0000F092FF002000F0F1F9022000F0B0F9A8
:10170C000346002B1FD0114B02221A70134B0122DF
:10171C001A70134B1B68134A1360134B1B68134A44
:10172C001360114B1B684FF47A7202FB03F31946DA
:10173C00002001F087F94FF47A71012001F082F951
:10174C00022000F0CBF900BF80BD00BFC400002018
:10175C00C70000200800002015220008C600002049
:10176C000C00002024000020200000202800002075
:10177C0080B586B002AF0346FB71FB7923F00F03F3
:10178C00FB73FB791B01BB73FB7B43F00C03DBB2DC
:10179C003B72FB7B43F00803DBB27B72BB7B43F0F9
:1017AC000C03DBB2BB72BB7B43F00803DBB2FB72F6
:1017BC0007F108026423009304234221034801F03B
:1017CC0061FF00BF1037BD4680BD00BF5001002037
:1017DC0080B586B002AF0346FB71FB7923F00F0393
:1017EC00FB73FB791B01BB73FB7B43F00D03DBB27B
:1017FC003B72FB7B43F00903DBB27B72BB7B43F098
:10180C000D03DBB2BB72BB7B43F00903DBB2FB7293
:10181C0007F108026423009304234221034801F0DA
:10182C0031FF00BF1037BD4680BD00BF5001002006
:10183C0080B582B000AF786006E07B685A1C7A6095
:10184C001B781846FFF7C4FF7B681B78002BF4D17C
:10185C0000BF00BF0837BD4680BD80B500AF01207A
:10186C00FFF786FF00BF80BD80B584B000AF786005
:10187C0039607B68012B08D17B68DAB23B68DBB23C
:10188C001344DBB27F33FB7308E03B68DBB24033BD
:10189C00DBB25BB263F07F035BB2FB73FB7B18467E
:1018AC00FFF766FF00BF1037BD4680BD80B582B024
:1018BC0000AF00237B6094E04E4A7B6813441B7896
:1018CC00032B00F28B8001A252F823F0E9180008D8
:1018DC000B190008B7190008631900087B68DBB204
:1018EC00184600F0AFF90346002B72D0414A7B68D2
:1018FC00134401221A70404B00221A7069E07B6875
:10190C00DBB2184600F09EF90346002B15D13A4B7A
:10191C001B78012B08D1374A7B68134400221A70BC
:10192C00354B00221A7056E0324A7B68134403226E
:10193C001A70324B05221A604DE07B68DBB21846F8
:10194C0000F09AF90346002B45D02A4A7B681344D1
:10195C0002221A703FE0294B1B68002B04DD274B39
:10196C001B68013B254A13607B68DBB2184600F00C
:10197C0069F90346002B0BD01E4A7B6813440122E5
:10198C001A70786800F04CF81B4B01221A7024E096
:10199C001A4B1B68002B20D1164A7B68134400227B
:1019AC001A70786800F02CF817E07B68DBB21846E8
:1019BC0000F048F90346002B07D10E4A7B6813440C
:1019CC0000221A700C4B00221A70786800F038F85C
:1019DC0004E000BF02E000BF00E000BF7B68013301
:1019EC007B607B68022B7FF767AF00BF00BF0837B7
:1019FC00BD4680BDE000002014010020180100202D
:101A0C0080B483B000AF7860044A7B68012142F84F
:101A1C00231000BF0C37BD4680BC7047E40000208B
:101A2C0080B483B000AF7860044A7B68012142F82F
:101A3C00231000BF0C37BD4680BC7047F00000205F
:101A4C0080B483B000AF7860044A7B68012142F80F
:101A5C00231000BF0C37BD4680BC70470801002026
:101A6C0080B582B000AF7860074A7B6852F82330AB
:101A7C00012B04D1786800F031F8012300E0002339
:101A8C0018460837BD4680BDE400002080B483B002
:101A9C0000AF7860064A7B6852F82330012B01D1E5
:101AAC00012300E0002318460C37BD4680BC70476C
:101ABC00F000002080B483B000AF7860064A7B68E9
:101ACC0052F82330012B01D1012300E000231846EA
:101ADC000C37BD4680BC70470801002080B483B031
:101AEC0000AF78600C4A7B68002142F823100B4A47
:101AFC007B68002142F82310094A7B68002142F8D8
:101B0C002310084A7B68002142F8231000BF0C37D1
:101B1C00BD4680BC704700BFE4000020F0000020F0
:101B2C00FC0000200801002080B582B000AF00232B
:101B3C007B6071E07B68022B19D07B68022B1DDC6B
:101B4C007B68002B03D07B68012B08D016E04FF488
:101B5C008071354801F00AFC0346FB7011E04FF42C
:101B6C000071314801F002FC0346FB7009E0802152
:101B7C002E4801F0FBFB0346FB7002E00123FB70D7
:101B8C0000BF2B4A7B68134419782A4A7B6813449C
:101B9C000A461A70264A7B681344FA781A70244A4B
:101BAC007B6813441A7823497B680B441B789A4250
:101BBC0008D11F4A7B68134419781F4A7B68134469
:101BCC000A461A701C4A7B6813441B78002B16D1EA
:101BDC001A4A7B6832F81330632B0AD8174A7B6891
:101BEC0032F81330013399B2144A7B6822F813107F
:101BFC000FE0134A7B68134401221A7009E00F4A64
:101C0C007B68002122F813100D4A7B6813440022D4
:101C1C001A707B6801337B607B68022B8ADD00BF06
:101C2C0000BF0837BD4680BD0008014000100140D0
:101C3C0030000020340000202C0000202001002067
:101C4C001C01002080B483B000AF0346FB71FB790C
:101C5C00022B01D9002307E0FB79064AD35C002B49
:101C6C000CBF01230023DBB218460C37BD4680BCE9
:101C7C00704700BF2C00002080B483B000AF034637
:101C8C00FB71FB79022B01D9FF2307E0FB79064A94
:101C9C00D35C012B0CBF01230023DBB218460C379D
:101CAC00BD4680BC704700BF1C01002080B500AF52
:101CBC00FFF7D3FD01210120FFF7D6FD0548FFF703
:101CCC00B7FD01210220FFF7CFFD0348FFF7B0FD60
:101CDC0000BF80BD285600082C56000880B582B085
:101CEC0000AFFFF7BAFD2F4B1B68012B02D12E4B17
:101CFC007B6001E02D4B7B6001210120FFF7B4FDDF
:101D0C002B4B1B78052B33D801A252F823F000BFC4
:101D1C00351D0008411D00084D1D0008591D000807
:101D2C00651D0008711D00087A682249224803F0DD
:101D3C00E5F822E07A6821491F4803F0DFF81CE03F
:101D4C007A681F491C4803F0D9F816E07A681D49D7
:101D5C00194803F0D3F810E07A681B49164803F0D1
:101D6C00CDF80AE07A681949134803F0C7F804E083
:101D7C001749114803F0C2F800BF0F48FFF758FD90
:101D8C0001210220FFF770FD124B1B681A46124905
:101D9C00094803F0B3F80848FFF74AFD00BF0837BD
:101DAC00BD4680BD04000020385600083C56000893
:101DBC00C7000020405600083C0100205056000887
:101DCC0060560008705600088056000890560008AF
:101DDC00A056000808000020AC56000880B500AFE3
:101DEC00FFF73BFD284B1B78062B02D0072B1DD091
:101DFC0039E001210120FFF737FD244B1B685A1EE7
:101E0C0022490A601A462249224803F077F82148F1
:101E1C00FFF70EFD01210220FFF726FD1E491D488C
:101E2C0003F06CF81B48FFF703FD2BE001210120A8
:101E3C00FFF71AFD154B1B685A1E14490A601A4607
:101E4C001649144803F05AF81248FFF7F1FC012127
:101E5C000220FFF709FD12490E4803F04FF80D4818
:101E6C00FFF7E6FC0EE001210120FFF7FDFC0D4819
:101E7C00FFF7DEFC01210220FFF7F6FC0948FFF713
:101E8C00D7FC00BF00BF80BDC700002000000020B1
:101E9C00B85600083C010020CC560008E05600085B
:101EAC00F45600080857000880B582B000AFFFF761
:101EBC00D4FC2C4B1B68012B02D12B4B7B6001E01B
:101ECC002A4B7B6001210120FFF7CEFC284B1B78AD
:101EDC00052B33D801A252F823F000BF011F0008D4
:101EEC000D1F0008191F0008251F0008311F0008CE
:101EFC003D1F00087A681F491F4802F0FFFF22E0CF
:101F0C007A681E491C4802F0F9FF1CE07A681C49EB
:101F1C00194802F0F3FF16E07A681A49164802F0E5
:101F2C00EDFF10E07A681849134802F0E7FF0AE069
:101F3C007A681649104802F0E1FF04E014490E4893
:101F4C0002F0DCFF00BF0C48FFF772FC01210220FD
:101F5C00FFF78AFC0F48FFF76BFC00BF0837BD4644
:101F6C0080BD00BF04000020385600083C56000815
:101F7C00C7000020405600083C01002050560008C5
:101F8C0060560008705600088056000890560008ED
:101F9C00145700081C57000880B500AFFFF75DFC14
:101FAC0001210120FFF760FC0548FFF741FC0121EE
:101FBC000220FFF759FC0348FFF73AFC00BF80BD35
:101FCC00285600082C57000880B500AFFFF745FCD9
:101FDC0001210120FFF748FC3B4B1B78013B032BF5
:101FEC006ED801A252F823F0052000083720000813
:101FFC00692000089B200008344B1B681A463449A2
:10200C00344802F07BFF3348FFF712FC0121022019
:10201C00FFF72AFC304B1B681A4630492D4802F05A
:10202C006DFF2C48FFF704FC4BE0284B1B681A464D
:10203C002749284802F062FF2648FFF7F9FB0121E7
:10204C000220FFF711FC244B1B681A462449214837
:10205C0002F054FF1F48FFF7EBFB32E01B4B1B68F1
:10206C001A4620491B4802F049FF1A48FFF7E0FBCB
:10207C0001210220FFF7F8FB174B1B681A461A497F
:10208C00144802F03BFF1348FFF7D2FB19E00F4B4B
:10209C001B681A4615490F4802F030FF0D48FFF730
:1020AC00C7FB01210220FFF7DFFB0B4B1B681A4615
:1020BC000D49084802F022FF0648FFF7B9FB00E083
:1020CC0000BF00BF80BD00BFC60000202400002060
:1020DC003C5700083C01002028000020485700080D
:1020EC0054570008605700086C57000878570008D0
:1020FC0080B582B000AF78607B68022B1FD07B6804
:10210C00022B27DC7B68002B03D07B68012B0BD0C8
:10211C0020E001220821174801F03FF9012220217B
:10212C00144801F03AF920E001220821114801F08D
:10213C0034F9002220210F4801F02FF915E000227C
:10214C0008210C4801F029F901222021094801F04D
:10215C0024F90AE000220821064801F01EF90022A9
:10216C002021044801F019F900BF00BF0837BD4613
:10217C0080BD00BF000C014080B582B000AF78601C
:10218C007B68022B21D07B68022B2ADC7B68002B1E
:10219C0003D07B68012B0CD023E0012210211948BD
:1021AC0001F0FBF801224FF48061164801F0F5F8BC
:1021BC0023E001221021134801F0EFF800224FF424
:1021CC008061104801F0E9F817E0002210210D4859
:1021DC0001F0E3F801224FF480610A4801F0DDF8C8
:1021EC000BE000221021074801F0D7F800224FF431
:1021FC008061044801F0D1F800BF00BF0837BD462C
:10220C0080BD00BF000C014080B500AF0821044820
:10221C0001F0DBF82021024801F0D7F800BF80BDA7
:10222C00000C014080B500AF2021024801F0CDF830
:10223C0000BF80BD000C014080B500AF08210248F2
:10224C0001F0C3F800BF80BD000C014080B500AFA9
:10225C001021054801F0B9F84FF48061024801F0F3
:10226C00B4F800BF80BD00BF000C014080B500AFCA
:10227C004FF48061024801F0A8F800BF80BD00BF98
:10228C00000C014080B500AF1021024801F09DF810
:10229C0000BF80BD000C014080B500AF082109488B
:1022AC0001F093F82021074801F08FF81021054820
:1022BC0001F08BF84FF48061024801F086F800BF02
:1022CC0080BD00BF000C014080B500AF0020FFF7BF
:1022DC000FFF0120FFF750FF00BF80BD80B500AF9E
:1022EC000020FFF705FF0220FFF746FF00BF80BD6F
:1022FC0080B500AF0120FFF7FBFE0020FFF73CFF8D
:10230C0000BF80BD80B500AF0220FFF7F1FE0020BA
:10231C00FFF732FF00BF80BD80B500AF00F06AF957
:10232C0000F030FD00F038F800F0ECF800F09EF80A
:10233C0000F06EF8114802F047F90A220A21104801
:10234C0000F06AF90A220A210E4800F065F90A2207
:10235C000A210D4800F060F90A220A210B4800F00E
:10236C005BF90A220A210A4800F056F90A220A21CE
:10237C00084800F051F900F0A1FAFCE7A401002094
:10238C00351B0008B918000875150008E90300088A
:10239C004D0100089514000880B590B000AF07F10E
:1023AC00180328220021184602F0EAFC3B1D0022EB
:1023BC001A605A609A60DA601A610223BB610123C9
:1023CC00BB621023FB6200237B6307F118031846E2
:1023DC0001F0B0FC0346002B01D000F005F90F23EF
:1023EC007B600023BB600023FB6000233B61002368
:1023FC007B613B1D0021184601F01CFF0346002B9E
:10240C0001D000F0F1F800BF4037BD4680BD0000A0
:10241C0080B500AF124B134A1A60114B124A5A6026
:10242C000F4B00229A600E4B0022DA600C4B4FF4DB
:10243C0080421A610A4B00225A61094B00229A61B0
:10244C00074B0022DA61064B00221A62044800F0A6
:10245C00D5FF0346002B01D000F0C6F800BF80BDAD
:10246C005001002000540040A086010080B586B0C9
:10247C0000AF07F1080300221A605A609A60DA6014
:10248C003B4600221A605A601D4B4FF080421A6086
:10249C001B4B41F63F725A60194B00229A60184B45
:1024AC000922DA60164B00221A61154B00229A6140
:1024BC00134802F039F80346002B01D000F094F8D1
:1024CC004FF48053BB6007F1080319460C4802F027
:1024DC00BDF90346002B01D000F086F800233B60C9
:1024EC0000237B603B461946054802F09FFB0346E0
:1024FC00002B01D000F078F800BF1837BD4680BD26
:10250C00A401002080B588B000AF07F110030022B1
:10251C001A605A609A60DA602A4B9B69294A43F028
:10252C0008039361274B9B6903F00803FB60FB686E
:10253C00244B9B69234A43F010039361214B9B6905
:10254C0003F01003BB60BB681E4B9B691D4A43F034
:10255C00040393611B4B9B6903F004037B607B6852
:10256C0000224FF48761184800F017FF4FF487637F
:10257C003B6101237B610023BB610223FB6107F1FB
:10258C0010031946104800F06DFD80233B610023B9
:10259C007B610023BB6107F1100319460B4800F067
:1025AC0061FD4FF440733B6100237B610023BB61F1
:1025BC0007F110031946064800F054FD00BF203700
:1025CC00BD4680BD00100240000C014000100140CF
:1025DC000008014080B582B000AF786000F0BEF911
:1025EC0000BF0837BD4680BD80B400AF72B600BFD7
:1025FC00FEE7000080B500AF042002F0B1FB0346FB
:10260C001A46044B1A60034B1B6800221A6000BF69
:10261C0080BD00BF2801002080B58AB000AFF860F3
:10262C00B9607A602B4B1B68282B01D102234CE03C
:10263C00284B1B680133274A1360BB687B6200235D
:10264C0087F82330244B1B681B68FB610023BB619C
:10265C0000237B6111E0FB691B685A68BB6913445A
:10266C00BB61BB69BA689A420BD397F8233001332C
:10267C0087F82330FB695B68FB61FB69002BEAD1AF
:10268C0000E000BFFB69002B12D0BA69FB691B6824
:10269C005B68D31A7B617B69BA68D31A7B62FB696E
:1026AC001B685968FB691B687A6A8A1A5A6003E0CE
:1026BC00BB69BA68D31A7B6297F823307A68796A57
:1026CC00F86800F00BF897F8233018462837BD4609
:1026DC0080BD00BF2C0100202801002080B588B0EF
:1026EC0000AFF860B9607A603B60082002F038FBFC
:1026FC0003467B617B69002B58D0142002F030FB21
:10270C0003461A467B691A607B691B68002B03D150
:10271C00786902F02DFB4AE07B691B68FA681A6045
:10272C007B691B68BA685A607B691B687A689A6017
:10273C007B691B6800221A737B691B683A681A61F3
:10274C007B6900225A603B68002B09D1194B1B682E
:10275C001A687B695A60174B1B687A691A6022E009
:10276C00144B1B681B68FB610023BB6105E0FB6914
:10277C005B68FB61BB690133BB613B68013BBA69B8
:10278C009A4202DAFB69002BF1D1FB69002B07D0CE
:10279C00FB695A687B695A60FB697A695A6002E086
:1027AC00786902F0E5FA00F00DF900E000BF20377F
:1027BC00BD4680BD2801002080B586B000AF034621
:1027CC00FB713C4B1B681B687B610023FB60394B26
:1027DC001B68002B04D0374B1B681B68002B01D1E6
:1027EC00022363E0FB79002B18D1324B1B681B686A
:1027FC00FB60304B1B68FA6852681A60FB681B68F8
:10280C00002B07D0FB681B68184602F0B1FAFB6876
:10281C0000221A60F86802F0ABFA3FE000233B613B
:10282C0005E07B695B687B613B6901333B617B69DC
:10283C00002B04D0FB79013B3A699A42F1DB7B69AE
:10284C00002B03D07B695B68002B01D102232DE0A8
:10285C007B695B68FB60FB685B68002B0BD0FB68DB
:10286C005B681B685968FB681B685A68FB685B6887
:10287C001B680A445A60FB685A687B695A60FB689B
:10288C001B68002B07D0FB681B68184602F070FA17
:10289C00FB6800221A60F86802F06AFA00F092F8FD
:1028AC00054B1B68013B044A13600123184618377B
:1028BC00BD4680BD280100202C01002080B584B0CD
:1028CC0000AF254B1B681B68002B40D0224B1B68AC
:1028DC001B681B681B7B002B39D01F4B1B681B68AC
:1028EC001B681A7B1C4B1B681B681B68013AD2B215
:1028FC001A7320E0184B1B681B68FB60FB681B6895
:10290C001B689847FB681B689B68002B10D0FB6802
:10291C001B681B68BB60FB681B689B687B600020A6
:10292C00FFF74AFF7A687968B868FFF775FE02E02E
:10293C000020FFF741FF084B1B681B68002B06D0DB
:10294C00054B1B681B681B685B68002BD2D000BF53
:10295C001037BD4680BD00BF2801002080B500AFF8
:10296C0000F090F8164B1B681B68002B25D0144BFD
:10297C001B681B681B68002B1FD0114B1B681B6846
:10298C001B685B68002B0CD10D4B1B681B681B680C
:10299C001A7B0B4B1B681B681B680132D2B21A7373
:1029AC000CE0074B1B681B681B685A68044B1B68C0
:1029BC001B681B680A3A5A6000E000BF80BD00BF6C
:1029CC002801002080B483B000AF00237B600B4B48
:1029DC001B681B683B6008E07B685A1C7A603A688D
:1029EC00126813613B685B683B603B68002BF3D15A
:1029FC0000BF00BF0C37BD4680BC704728010020CB
:102A0C0080B485B000AF78600D4B1B681B68FB6011
:102A1C000CE0FB681B681B687A689A4203D1FB6860
:102A2C001B681B6907E0FB685B68FB60FB68002B9D
:102A3C00EFD14FF0FF3318461437BD4680BC7047BA
:102A4C002801002080B483B000AF786039603B6807
:102A5C000A4A82FB03129210DB17D21A08497B68D0
:102A6C0041F83320064A7B68DB00134400225A608D
:102A7C0000BF0C37BD4680BC704700BF67666666FA
:102A8C00EC01002080B483B000AF00237B601DE01C
:102A9C00134A7B6852F83330002B14DD104A7B68E4
:102AAC0052F833305A1E0E497B6841F833200C4AD9
:102ABC007B6852F83330002B05DC094A7B68DB005D
:102ACC00134401225A607B6801337B607B68022BC4
:102ADC00DEDD00BF00BF0C37BD4680BC704700BFB9
:102AEC00EC01002080B483B000AF7860074A7B68AB
:102AFC00DB0013445B68002B01D0012300E00023B2
:102B0C0018460C37BD4680BC704700BFEC01002056
:102B1C0080B485B000AF154B9B69144A43F0010398
:102B2C009361124B9B6903F00103BB60BB680F4BB5
:102B3C00DB690E4A43F08053D3610C4BDB6903F025
:102B4C0080537B607B680A4B5B68FB60FB6823F0FF
:102B5C00E063FB60FB6843F00073FB60044AFB68B6
:102B6C00536000BF1437BD4680BC70470010024054
:102B7C000000014080B58AB000AF786007F1140303
:102B8C0000221A605A609A60DA607B681B681D4AE2
:102B9C00934232D11C4B9B691B4A43F0080393614F
:102BAC00194B9B6903F008033B613B694FF440737D
:102BBC007B611223BB6103233B6207F114031946AB
:102BCC00124800F04FFA124B5B687B627B6A43F051
:102BDC00E0637B627B6A43F002037B620C4A7B6A94
:102BEC005360094BDB69084A43F40013D361064B6D
:102BFC00DB6903F40013FB60FB6800BF2837BD469C
:102C0C0080BD00BF0054004000100240000C014089
:102C1C000000014080B584B000AF78607B681B6811
:102C2C00B3F1804F13D10C4BDB690B4A43F001031A
:102C3C00D361094BDB6903F00103FB60FB680022E5
:102C4C0000211C2000F0D7F91C2000F0F0F900BF87
:102C5C001037BD4680BD00BF0010024080B400AFED
:102C6C00FEE780B400AFFEE780B400AFFEE780B4AF
:102C7C0000AFFEE780B400AFFEE780B400AF00BF4A
:102C8C00BD4680BC704780B400AF00BFBD4680BC61
:102C9C00704780B400AF00BFBD4680BC704780B5A4
:102CAC0000AF00F0B5F800BF80BD000080B500AFEC
:102CBC00024801F0DBFC00BF80BD00BFA401002076
:102CCC0080B586B000AF7860144A154BD31A7B617F
:102CDC007B693B61134B1B68002B02D1114B124AD1
:102CEC001A60104B1A687B6813443A699A4207D2EF
:102CFC0002F00CF803460C221A604FF0FF3309E087
:102D0C00084B1B68FB60074B1A687B681344054A29
:102D1C001360FB6818461837BD4680BD0050002074
:102D2C0000040000300100201802002080B400AF25
:102D3C0000BFBD4680BC7047FFF7F8FF0B480C493D
:102D4C000C4A002302E0D458C4500433C4188C42FB
:102D5C00F9D3094A094C002301E013600432A24262
:102D6C00FBD301F0D9FFFFF7D7FA70470000002022
:102D7C00A8000020EC570008A80000201802002032
:102D8C00FEE7000080B500AF084B1B68074A43F014
:102D9C0010031360032000F023F90F2000F008F853
:102DAC00FFF7B6FE0023184680BD00BF002002408E
:102DBC0080B582B000AF7860124B1A68124B1B784A
:102DCC0019464FF47A73B3FBF1F3B2FBF3F31846E5
:102DDC0000F03BF90346002B01D001230EE07B6889
:102DEC000F2B0AD8002279684FF0FF3000F003F95E
:102DFC00064A7B681360002300E00123184608375D
:102E0C00BD4680BD38000020400000203C00002062
:102E1C0080B400AF054B1B781A46054B1B68134456
:102E2C00034A136000BFBD4680BC704740000020C1
:102E3C000402002080B400AF024B1B681846BD464C
:102E4C0080BC70470402002080B485B000AF78606D
:102E5C007B6803F00703FB600C4BDB68BB60BA6854
:102E6C004FF6FF031340BB60FB681A02BB681343A9
:102E7C0043F0BF6343F40033BB60044ABB68D360C8
:102E8C0000BF1437BD4680BC704700BF00ED00E0AA
:102E9C0080B400AF044BDB681B0A03F00703184631
:102EAC00BD4680BC704700BF00ED00E080B483B02D
:102EBC0000AF0346FB7197F90730002B0BDBFB7956
:102ECC0003F01F02064997F907305B09012000FA4D
:102EDC0002F241F8232000BF0C37BD4680BC70477E
:102EEC0000E100E080B483B000AF03463960FB71B1
:102EFC0097F90730002B0ADB3B68DAB20C4997F9DB
:102F0C0007301201D2B20B4483F800230AE03B686D
:102F1C00DAB20849FB7903F00F03043B1201D2B279
:102F2C000B441A7600BF0C37BD4680BC704700BFFF
:102F3C0000E100E000ED00E080B489B000AFF86083
:102F4C00B9607A60FB6803F00703FB61FB69C3F1AE
:102F5C000703042B28BF0423BB61FB690433062B36
:102F6C0002D9FB69033B00E000237B614FF0FF3289
:102F7C00BB6902FA03F3DA43BB681A407B699A40D7
:102F8C004FF0FF317B6901FA03F3D9437B680B40A7
:102F9C00134318462437BD4680BC704780B582B0B9
:102FAC0000AF78607B68013BB3F1807F01D30123D4
:102FBC000FE00A4A7B68013B53600F214FF0FF3052
:102FCC00FFF790FF054B00229A60044B07221A6012
:102FDC00002318460837BD4680BD00BF10E000E056
:102FEC0080B582B000AF78607868FFF72DFF00BF26
:102FFC000837BD4680BD80B586B000AF0346B960CA
:10300C007A60FB7300237B61FFF742FF78617A687B
:10301C00B9687869FFF790FF024697F90F301146AF
:10302C001846FFF75FFF00BF1837BD4680BD80B55F
:10303C0082B000AF0346FB7197F907301846FFF7D3
:10304C0035FF00BF0837BD4680BD80B582B000AFEC
:10305C0078607868FFF7A2FF034618460837BD462C
:10306C0080BD000080B48BB000AF78603960002365
:10307C007B6200233B6269E101227B6A02FA03F363
:10308C00FB613B681B68FA691340BB61BA69FB6959
:10309C009A4240F058813B685B689A4A93425ED0F2
:1030AC00984A934275D8984A934258D0964A93427C
:1030BC006FD8964A934252D0944A934269D8944A14
:1030CC0093424CD0924A934263D8924A934246D050
:1030DC00904A93425DD8122B2AD8122B59D801A2B0
:1030EC0052F823F06B3100084531000857310008C5
:1030FC00993100089F3100089F3100089F3100086A
:10310C009F3100089F3100089F3100089F31000853
:10311C009F3100089F3100089F3100089F31000843
:10312C009F3100089F3100084D31000861310008C3
:10313C00794A934213D02CE03B68DB683B6229E070
:10314C003B68DB6804333B6224E03B68DB68083394
:10315C003B621FE03B68DB680C333B621AE03B6868
:10316C009B68002B02D104233B6213E03B689B68F5
:10317C00012B05D108233B627B68FA691A6109E0CF
:10318C0008233B627B68FA695A6103E000233B62C7
:10319C0000E000BFBB69FF2B01D87B6801E07B68B6
:1031AC0004337B61BB69FF2B02D87B6A9B0002E076
:1031BC007B6A083B9B003B617B691A680F213B696A
:1031CC0001FA03F3DB431A40396A3B6901FA03F352
:1031DC001A437B691A603B685B6803F08053002BD1
:1031EC0000F0B1804D4B9B694C4A43F00103936155
:1031FC004A4B9B6903F00103BB60BB68484A7B6A7E
:10320C009B08023352F82330FB607B6A03F0030304
:10321C009B000F2202FA03F3DB43FA681340FB60B6
:10322C007B68404A934213D07B683F4A93420DD04F
:10323C007B683E4A934207D07B683D4A934201D15A
:10324C00032306E0042304E0022302E0012300E050
:10325C0000237A6A02F0030292009340FA68134347
:10326C00FB602F497B6A9B080233FA6841F82320E4
:10327C003B685B6803F48013002B06D02D4B9A68D7
:10328C002C49BB6913438B6006E02A4B9A68BB69D7
:10329C00DB43284913408B603B685B6803F40013E5
:1032AC00002B06D0234BDA682249BB691343CB6051
:1032BC0006E0204BDA68BB69DB431E491340CB6048
:1032CC003B685B6803F40033002B06D0194B5A683B
:1032DC001849BB6913434B6006E0164B5A68BB692F
:1032EC00DB43144913404B603B685B6803F4803349
:1032FC00002B21D00F4B1A680E49BB6913430B608E
:10330C0021E000BF0000321000003110000022103C
:10331C0000002110000012100000111000100240DB
:10332C000000014000080140000C01400010014069
:10333C0000140140000401400B4B1A68BB69DB43CD
:10334C00094913400B607B6A01337B623B681A6846
:10335C007B6A22FA03F3002B7FF48EAE00BF00BF12
:10336C002C37BD4680BC70470004014080B485B04A
:10337C0000AF78600B467B807B689A687B88134033
:10338C00002B02D00123FB7301E00023FB73FB7BBA
:10339C0018461437BD4680BC704780B483B000AF6C
:1033AC0078600B467B8013467B707B78002B03D0B8
:1033BC007A887B681A6103E07B881A047B681A613F
:1033CC0000BF0C37BD4680BC704780B485B000AFE1
:1033DC0078600B467B807B68DB68FB607A88FB68D7
:1033EC0013401A04FB68D9437B880B401A437B6853
:1033FC001A6100BF1437BD4680BC704780B584B0DD
:10340C0000AF78607B68002B01D101232BE17B6836
:10341C0093F83D30DBB2002B06D17B68002283F899
:10342C003C207868FFF7A6FB7B68242283F83D20BC
:10343C007B681B681A687B681B6822F001021A60A3
:10344C007B681B681A687B681B6842F400421A6030
:10345C007B681B681A687B681B6822F400421A6040
:10346C0001F030F8F8607B685B68814A934207D8BA
:10347C00FB68804A934294BF01230023DBB206E031
:10348C00FB687D4A934294BF01230023DBB2002BDF
:10349C0001D00123E7E0FB68784AA2FB03239B0CD5
:1034AC00BB607B681B685B6823F03F017B681B6813
:1034BC00BA680A435A607B681B681B6A23F03F0199
:1034CC007B685B686A4A934202D8BB68013309E0A7
:1034DC00BB684FF4967202FB03F3694AA2FB032309
:1034EC009B0901337A6812680B4313627B681B6873
:1034FC00DB6923F44F4222F0FF027B685B685C4976
:10350C008B4219D8FB68591E7B685B685B00B1FB6A
:10351C00F3F3591C40F6FC730B40002B0AD0FB68EC
:10352C00591E7B685B685B00B1FBF3F30133C3F39B
:10353C000B0351E004234FE07B689B68002B11D1F7
:10354C00FB68581E7B6859680B465B000B44B0FB4C
:10355C00F3F30133C3F30B03002B0CBF0123002344
:10356C00DBB212E0FB68581E7B6859680B469B0067
:10357C000B4499000B44B0FBF3F30133C3F30B037F
:10358C00002B0CBF01230023DBB2002B01D0012345
:10359C0022E07B689B68002B0ED1FB68581E7B6871
:1035AC0059680B465B000B44B0FBF3F30133C3F3D8
:1035BC000B0343F400430FE0FB68581E7B6859680B
:1035CC000B469B000B4499000B44B0FBF3F3013307
:1035DC00C3F30B0343F44043796809681343CB618D
:1035EC007B681B681B6823F0C0017B68DA697B6809
:1035FC001B6A1A437B681B680A431A607B681B684A
:10360C009B6823F4034323F0FF037A6811697A68FB
:10361C00D26811437A6812680B4393607B681B680D
:10362C00DB6823F0FF017B685A697B689B691A434E
:10363C007B681B680A43DA607B681B681A687B68C6
:10364C001B6842F001021A607B6800221A647B68D6
:10365C00202283F83D207B6800221A637B680022BD
:10366C0083F83E20002318461037BD4680BD00BFAE
:10367C00A08601007F841E00FF083D0083DE1B43F3
:10368C00D34D621080B588B002AFF8607A601A46EC
:10369C000B467B8113463B81FFF7CCFB7861FB68C3
:1036AC0093F83D30DBB2202B40F0E0807B69009337
:1036BC00192301227049F86800F064F90346002BC5
:1036CC0001D00223D3E0FB6893F83C30012B01D1ED
:1036DC000223CCE0FB68012283F83C20FB681B68CA
:1036EC001B6803F00103012B07D0FB681B681A68E9
:1036FC00FB681B6842F001021A60FB681B681A68C1
:10370C00FB681B6822F400621A60FB68212283F8B4
:10371C003D20FB68102283F83E20FB6800221A64CF
:10372C00FB687A685A62FB683A895A85FB685B8D3C
:10373C009AB2FB681A85FB68504ADA6279897B6910
:10374C003A6AF86800F09CF80346002B01D001237C
:10375C008DE000233B61FB681B685B693B61FB6888
:10376C001B689B693B613B6966E07A69396AF8685A
:10377C0000F022FA0346002B0DD0FB681B6C042BC7
:10378C0007D1FB681B681A68FB681B6842F400725F
:10379C001A6001236BE0FB685B6A1A78FB681B6894
:1037AC001A61FB685B6A5A1CFB685A62FB685B8D8A
:1037BC009BB2013B9AB2FB685A85FB681B8D013B9F
:1037CC009AB2FB681A85FB681B685B6903F00403FB
:1037DC00042B1BD1FB681B8D002B17D0FB685B6A7D
:1037EC001A78FB681B681A61FB685B6A5A1CFB68D9
:1037FC005A62FB685B8D9BB2013B9AB2FB685A859F
:10380C00FB681B8D013B9AB2FB681A857A69396A91
:10381C00F86800F019FA0346002B0DD0FB681B6CFE
:10382C00042B07D1FB681B681A68FB681B6842F401
:10383C0000721A6001231AE0FB681B8D002B94D1D7
:10384C00FB681B681A68FB681B6842F400721A60FC
:10385C00FB68202283F83D20FB68002283F83E2081
:10386C00FB68002283F83C20002300E0022318466A
:10387C001837BD4680BD00BF020010000000FFFFDE
:10388C0080B588B002AFF8607A603B600B467B81F4
:10389C00FB68DB6A7B617B69082B06D07B69012B9B
:1038AC0003D07B6913F5803F08D1FB681B681A684D
:1038BC00FB681B6842F480721A600BE0FB681B6BA0
:1038CC00122B07D1FB681B681A68FB681B6842F453
:1038DC0080721A603B6800937B6800224FF00111E4
:1038EC00F86800F04FF80346002B0DD0FB681B68FE
:1038FC001B6803F48073B3F5807F03D1FB684FF42E
:10390C0000721A64032335E0FB681B69B3F5804F22
:10391C0008D17B89DBB21A46FB681B6802F0FE02F9
:10392C001A611BE07B89DB11DBB203F00603DBB20F
:10393C0063F00F03DAB2FB681B681A613B687A68A4
:10394C000E49F86800F098F80346002B01D00123CB
:10395C0010E07B89DAB2FB681B681A613B687A68F5
:10396C000749F86800F088F80346002B01D00123C2
:10397C0000E0002318461837BD4680BD0800010042
:10398C000200010080B584B000AFF860B9603B6004
:10399C001346FB7148E03B68B3F1FF3F44D0FFF79F
:1039AC0049FA0246BB69D31A3A689A4202D33B6879
:1039BC00002B39D1BB681B0CDBB2012B0DD1FB6882
:1039CC001B685B69DA43BB6813409BB2002B0CBFCE
:1039DC0001230023DBB21A460CE0FB681B689B69D1
:1039EC00DA43BB6813409BB2002B0CBF01230023AE
:1039FC00DBB21A46FB799A4216D1FB6800221A6395
:103A0C00FB68202283F83D20FB68002283F83E20CF
:103A1C00FB681B6C43F02002FB681A64FB680022F5
:103A2C0083F83C20012323E0BB681B0CDBB2012B89
:103A3C000DD1FB681B685B69DA43BB6813409BB212
:103A4C00002B0CBF01230023DBB21A460CE0FB68F1
:103A5C001B689B69DA43BB6813409BB2002B0CBFFD
:103A6C0001230023DBB21A46FB799A4293D0002340
:103A7C0018461037BD4680BD80B584B000AFF860E5
:103A8C00B9607A603B6071E0FB681B685B6903F4AA
:103A9C008063B3F5806F23D1FB681B681A68FB68E1
:103AAC001B6842F400721A60FB681B686FF480623A
:103ABC005A61FB6800221A63FB68202283F83D20C0
:103ACC00FB68002283F83E20FB681B6C43F0040269
:103ADC00FB681A64FB68002283F83C20012367E032
:103AEC007B68B3F1FF3F41D0FFF7A4F902463B6876
:103AFC00D31A7A689A4202D37B68002B36D1BB6802
:103B0C001B0CDBB2012B0CD1FB681B685B69DA4325
:103B1C00BB6813409BB2002B14BF01230023DBB204
:103B2C000BE0FB681B689B69DA43BB6813409BB2D4
:103B3C00002B14BF01230023DBB2002B16D0FB6833
:103B4C0000221A63FB68202283F83D20FB680022C8
:103B5C0083F83E20FB681B6C43F02002FB681A6460
:103B6C00FB68002283F83C20012321E0BB681B0C7E
:103B7C00DBB2012B0CD1FB681B685B69DA43BB68B9
:103B8C0013409BB2002B14BF01230023DBB20BE0CC
:103B9C00FB681B689B69DA43BB6813409BB2002B24
:103BAC0014BF01230023DBB2002B7FF46DAF002385
:103BBC0018461037BD4680BD80B584B000AFF860A4
:103BCC00B9607A6034E0F86800F086F80346002BA0
:103BDC0001D0012334E0BB68B3F1FF3F28D0FFF7DD
:103BEC0029F902467B68D31ABA689A4202D3BB6899
:103BFC00002B1DD1FB681B685B6903F08003802BD5
:103C0C0016D0FB6800221A63FB68202283F83D2043
:103C1C00FB68002283F83E20FB681B6C43F02002FB
:103C2C00FB681A64FB68002283F83C20012307E040
:103C3C00FB681B685B6903F08003802BC3D10023F6
:103C4C0018461037BD4680BD80B584B000AFF86013
:103C5C00B9607A6034E0F86800F03EF80346002B57
:103C6C0001D0012334E0BB68B3F1FF3F28D0FFF74C
:103C7C00E1F802467B68D31ABA689A4202D3BB6851
:103C8C00002B1DD1FB681B685B6903F00403042B3C
:103C9C0016D0FB6800221A63FB68202283F83D20B3
:103CAC00FB68002283F83E20FB681B6C43F020026B
:103CBC00FB681A64FB68002283F83C20012307E0B0
:103CCC00FB681B685B6903F00403042BC3D100235E
:103CDC0018461037BD4680BD80B483B000AF786005
:103CEC007B681B685B6903F48063B3F5806F1BD141
:103CFC007B681B686FF480625A617B6800221A63D0
:103D0C007B68202283F83D207B68002283F83E20CC
:103D1C007B681B6C43F004027B681A647B6800228E
:103D2C0083F83C20012300E0002318460C37BD46E5
:103D3C0080BC704780B586B000AF78607B68002B84
:103D4C0001D101236CE27B681B6803F00103002B9B
:103D5C0000F08780924B5B6803F00C03042B0CD0B3
:103D6C008F4B5B6803F00C03082B12D18C4B5B68F8
:103D7C0003F48033B3F5803F0BD1894B1B6803F4FC
:103D8C000033002B6CD07B685B68002B68D101235F
:103D9C0046E27B685B68B3F5803F06D1804B1B68BD
:103DAC007F4A43F4803313602EE07B685B68002B02
:103DBC000CD17B4B1B687A4A23F480331360784B0D
:103DCC001B68774A23F4802313601DE07B685B68D3
:103DDC00B3F5A02F0CD1724B1B68714A43F48023AE
:103DEC0013606F4B1B686E4A43F4803313600BE017
:103DFC006B4B1B686A4A23F480331360684B1B6857
:103E0C00674A23F4802313607B685B68002B13D014
:103E1C00FFF710F8386108E0FFF70CF802463B6931
:103E2C00D31A642B01D90323FAE15D4B1B6803F40D
:103E3C000033002BF0D014E0FEF7FCFF386108E0F3
:103E4C00FEF7F8FF02463B69D31A642B01D9032312
:103E5C00E6E1534B1B6803F40033002BF0D100E078
:103E6C0000BF7B681B6803F00203002B63D04C4B34
:103E7C005B6803F00C03002B0BD0494B5B6803F021
:103E8C000C03082B1CD1464B5B6803F48033002BCE
:103E9C0016D1434B1B6803F00203002B05D07B6843
:103EAC001B69012B01D00123BAE13D4B1B6823F0A8
:103EBC00F8027B685B69DB00394913430B603AE01D
:103ECC007B681B69002B20D0364B01221A60FEF751
:103EDC00B1FF386108E0FEF7ADFF02463B69D31A2B
:103EEC00022B01D903239BE12D4B1B6803F002032A
:103EFC00002BF0D02A4B1B6823F0F8027B685B691F
:103F0C00DB00274913430B6015E0264B00221A6097
:103F1C00FEF790FF386108E0FEF78CFF02463B6924
:103F2C00D31A022B01D903237AE11D4B1B6803F032
:103F3C000203002BF0D17B681B6803F00803002BF5
:103F4C003AD07B689B69002B19D0174B01221A6061
:103F5C00FEF770FF386108E0FEF76CFF02463B6924
:103F6C00D31A022B01D903235AE10D4B5B6A03F0E0
:103F7C000203002BF0D0012000F0B8FA1CE00A4B31
:103F8C0000221A60FEF756FF38610FE0FEF752FF71
:103F9C0002463B69D31A022B08D9032340E100BF28
:103FAC000010024000004242800442429E4B5B6A79
:103FBC0003F00203002BE9D17B681B6803F00403B8
:103FCC00002B00F0A6800023FB75974BDB6903F0F8
:103FDC008053002B0DD1944BDB69934A43F08053F3
:103FEC00D361914BDB6903F08053BB60BB68012349
:103FFC00FB758E4B1B6803F48073002B18D18B4B15
:10400C001B688A4A43F480731360FEF713FF386110
:10401C0008E0FEF70FFF02463B69D31A642B01D967
:10402C000323FDE0814B1B6803F48073002BF0D05D
:10403C007B68DB68012B06D17B4B1B6A7A4A43F009
:10404C00010313622DE07B68DB68002B0CD1764BEF
:10405C001B6A754A23F001031362734B1B6A724A85
:10406C0023F0040313621CE07B68DB68052B0CD186
:10407C006D4B1B6A6C4A43F0040313626A4B1B6A58
:10408C00694A43F0010313620BE0674B1B6A664AF3
:10409C0023F001031362644B1B6A634A23F004038D
:1040AC0013627B68DB68002B15D0FEF7C3FE38610A
:1040BC000AE0FEF7BFFE02463B69D31A41F2883292
:1040CC00934201D90323ABE0574B1B6A03F0020365
:1040DC00002BEED014E0FEF7ADFE38610AE0FEF7DF
:1040EC00A9FE02463B69D31A41F28832934201D9A8
:1040FC00032395E04C4B1B6A03F00203002BEED11B
:10410C00FB7D012B05D1484BDB69474A23F08053DB
:10411C00D3617B68DB69002B00F08180424B5B68CC
:10412C0003F00C03082B61D07B68DB69022B46D1B2
:10413C003F4B00221A60FEF77DFE386108E0FEF767
:10414C0079FE02463B69D31A022B01D9032367E09F
:10415C00354B1B6803F00073002BF0D17B681B6A96
:10416C00B3F5803F08D1304B5B6823F400327B6899
:10417C009B682D4913434B602B4B5B6823F47412E3
:10418C007B68196A7B685B6A0B43274913434B6056
:10419C00274B01221A60FEF74DFE386108E0FEF74E
:1041AC0049FE02463B69D31A022B01D9032337E09F
:1041BC001D4B1B6803F00073002BF0D02FE01C4B41
:1041CC0000221A60FEF736FE386108E0FEF732FE78
:1041DC0002463B69D31A022B01D9032320E0124B70
:1041EC001B6803F00073002BF0D118E07B68DB69CF
:1041FC00012B01D1012313E00B4B5B68FB60FB68C7
:10420C0003F480327B681B6A9A4206D1FB6803F484
:10421C0070127B685B6A9A4201D0012300E0002394
:10422C0018461837BD4680BD001002400070004093
:10423C006000424280B584B000AF786039607B6822
:10424C00002B01D10123D0E06A4B1B6803F007035C
:10425C003A689A4210D9674B1B6823F007026549EC
:10426C003B6813430B60634B1B6803F007033A680E
:10427C009A4201D00123B8E07B681B6803F002036B
:10428C00002B20D07B681B6803F00403002B05D0A7
:10429C00594B5B68584A43F4E06353607B681B6876
:1042AC0003F00803002B05D0534B5B68524A43F4D0
:1042BC0060535360504B5B6823F0F0027B689B6843
:1042CC004D4913434B607B681B6803F00103002BC3
:1042DC0040D07B685B68012B07D1474B1B6803F40C
:1042EC000033002B15D101237FE07B685B68022B28
:1042FC0007D1414B1B6803F00073002B09D101233C
:10430C0073E03D4B1B6803F00203002B01D101232A
:10431C006BE0394B5B6823F003027B685B683649C2
:10432C0013434B60FEF786FDF8600AE0FEF782FD52
:10433C000246FB68D31A41F28832934201D9032317
:10434C0053E02D4B5B6803F00C027B685B689B00B1
:10435C009A42EBD1274B1B6803F007033A689A4249
:10436C0010D2244B1B6823F0070222493B681343ED
:10437C000B60204B1B6803F007033A689A4201D08C
:10438C00012332E07B681B6803F00403002B08D088
:10439C00194B5B6823F4E0627B68DB6816491343B6
:1043AC004B607B681B6803F00803002B09D0124B91
:1043BC005B6823F460527B681B69DB000E49134376
:1043CC004B6000F021F802460B4B5B681B0903F0B5
:1043DC000F030A49CB5C22FA03F3094A1360094B19
:1043EC001B681846FEF7E4FC002318461037BD4640
:1043FC0080BD00BF0020024000100240845700081E
:10440C00380000203C00002080B487B000AF0023AF
:10441C00FB600023BB6000237B6100237B600023D7
:10442C003B611E4B5B68FB60FB6803F00C03042BC9
:10443C0002D0082B03D027E0194B3B6127E0FB6827
:10444C009B0C03F00F03174AD35C7B60FB6803F4EF
:10445C008033002B10D0114B5B685B0C03F0010315
:10446C00114AD35CBB607B680D4A02FB03F2BB684C
:10447C00B2FBF3F37B6104E07B680C4A02FB03F3B1
:10448C007B617B693B6102E0054B3B6100BF3B6993
:10449C0018461C37BD4680BC704700BF0010024058
:1044AC0000127A009C570008AC57000800093D0028
:1044BC0080B400AF024B1B681846BD4680BC7047E9
:1044CC003800002080B500AFFFF7F2FF0246054B25
:1044DC005B681B0A03F007030349CB5C22FA03F366
:1044EC00184680BD001002409457000880B485B077
:1044FC0000AF78600A4B1B680A4AA2FB03235B0AD5
:10450C007A6802FB03F3FB6000BFFB685A1EFA607B
:10451C00002BF9D100BF00BF1437BD4680BC7047DB
:10452C0038000020D34D621080B582B000AF7860A7
:10453C007B68002B01D1012341E07B6893F83D306F
:10454C00DBB2002B06D17B68002283F83C20786814
:10455C00FEF760FB7B68022283F83D207B681A68BB
:10456C007B6804331946104600F05CFA7B68012224
:10457C0083F846207B68012283F83E207B68012269
:10458C0083F83F207B68012283F840207B6801225E
:10459C0083F841207B68012283F842207B6801224A
:1045AC0083F843207B68012283F844207B68012236
:1045BC0083F845207B68012283F83D2000231846B0
:1045CC000837BD4680BD000080B485B000AF786070
:1045DC007B6893F83D30DBB2012B01D001233AE02C
:1045EC007B68022283F83D207B681B68DA687B6855
:1045FC001B6842F00102DA607B681B68184A934220
:10460C000ED07B681B68B3F1804F09D07B681B68A8
:10461C00144A934204D07B681B68134A934211D10D
:10462C007B681B689B6803F00703FB60FB68062B29
:10463C0010D07B681B681A687B681B6842F001020B
:10464C001A6007E07B681B681A687B681B6842F07D
:10465C0001021A60002318461437BD4680BC70470F
:10466C00002C0140000400400008004080B584B0DC
:10467C0000AF78607B681B68DB68FB607B681B683D
:10468C001B69BB60BB6803F00203002B20D0FB68E6
:10469C0003F00203002B1BD07B681B686FF0020237
:1046AC001A617B6801221A777B681B689B6903F08F
:1046BC000303002B03D0786800F098F905E07868C4
:1046CC0000F08BF9786800F09AF97B6800221A7771
:1046DC00BB6803F00403002B20D0FB6803F0040339
:1046EC00002B1BD07B681B686FF004021A617B687F
:1046FC0002221A777B681B689B6903F44073002BBA
:10470C0003D0786800F072F905E0786800F065F97C
:10471C00786800F074F97B6800221A77BB6803F0A4
:10472C000803002B20D0FB6803F00803002B1BD0E0
:10473C007B681B686FF008021A617B6804221A7789
:10474C007B681B68DB6903F00303002B03D07868DC
:10475C0000F04CF905E0786800F03FF9786800F05B
:10476C004EF97B6800221A77BB6803F01003002B0C
:10477C0020D0FB6803F01003002B1BD07B681B6858
:10478C006FF010021A617B6808221A777B681B682D
:10479C00DB6903F44073002B03D0786800F026F932
:1047AC0005E0786800F019F9786800F028F97B6862
:1047BC0000221A77BB6803F00103002B0CD0FB68B6
:1047CC0003F00103002B07D07B681B686FF001021C
:1047DC001A617868FDF7FEFEBB6803F08003002BBE
:1047EC000CD0FB6803F08003002B07D07B681B68A0
:1047FC006FF080021A61786800F07FFABB6803F0F2
:10480C004003002B0CD0FB6803F04003002B07D0B7
:10481C007B681B686FF040021A61786800F0F8F84A
:10482C00BB6803F02003002B0CD0FB6803F02003C3
:10483C00002B07D07B681B686FF020021A61786828
:10484C0000F052FA00BF1037BD4680BD80B584B071
:10485C0000AF786039600023FB737B6893F83C30C1
:10486C00012B01D10223B4E07B68012283F83C20A8
:10487C007B68022283F83D207B681B689B68BB60C9
:10488C00BB6823F07703BB60BB6823F47F43BB603A
:10489C007B681B68BA689A603B681B68B3F5005F5D
:1048AC003ED0B3F5005F00F28780B3F5805F00F077
:1048BC008680B3F5805F7FD8702B1AD0702B7BD895
:1048CC00602B50D0602B77D8502B3CD0502B73D80A
:1048DC00402B58D0402B6FD8302B64D0302B6BD85A
:1048EC00202B60D0202B67D8002B5CD0102B5AD0FB
:1048FC0062E07B6818683B6899683B685A683B685B
:10490C00DB6800F074F97B681B689B68BB60BB6854
:10491C0043F07703BB607B681B68BA689A604FE012
:10492C007B6818683B6899683B685A683B68DB6829
:10493C0000F05DF97B681B689A687B681B6842F421
:10494C0080429A603CE07B6818683B6859683B6819
:10495C00DB681A4600F0D4F87B681B6850211846B7
:10496C0000F02BF92CE07B6818683B6859683B68B1
:10497C00DB681A4600F0F2F87B681B686021184669
:10498C0000F01BF91CE07B6818683B6859683B68B1
:10499C00DB681A4600F0B4F87B681B6840211846A7
:1049AC0000F00BF90CE07B681A683B681B68194631
:1049BC00104600F002F903E00123FB7300E000BF96
:1049CC007B68012283F83D207B68002283F83C2021
:1049DC00FB7B18461037BD4680BD80B483B000AF5A
:1049EC00786000BF0C37BD4680BC704780B483B084
:1049FC0000AF786000BF0C37BD4680BC704780B4F8
:104A0C0083B000AF786000BF0C37BD4680BC7047E8
:104A1C0080B483B000AF786000BF0C37BD4680BC5B
:104A2C007047000080B485B000AF786039607B6857
:104A3C001B68FB607B682F4A93420BD07B68B3F1F9
:104A4C00804F07D07B682C4A934203D07B682B4A5B
:104A5C00934208D1FB6823F07003FB603B685B68F2
:104A6C00FA681343FB607B68224A93420BD07B6845
:104A7C00B3F1804F07D07B681F4A934203D07B6809
:104A8C001E4A934208D1FB6823F44073FB603B68D9
:104A9C00DB68FA681343FB60FB6823F080023B6819
:104AAC005B691343FB607B68FA681A603B689A6821
:104ABC007B68DA623B681A687B689A627B680D4A8D
:104ACC00934203D13B681A697B681A637B680122A5
:104ADC005A617B681B6903F00103002B05D07B68CE
:104AEC001B6923F001027B681A6100BF1437BD46B5
:104AFC0080BC7047002C01400004004000080040BE
:104B0C0080B487B000AFF860B9607A60FB681B6A4C
:104B1C007B61FB681B6A23F00102FB681A62FB686D
:104B2C009B693B613B6923F0F0033B617B681B0194
:104B3C003A6913433B617B6923F00A037B617A6911
:104B4C00BB6813437B61FB683A699A61FB687A69BD
:104B5C001A6200BF1C37BD4680BC704780B487B05A
:104B6C0000AFF860B9607A60FB681B6A7B61FB6818
:104B7C001B6A23F01002FB681A62FB689B693B619D
:104B8C003B6923F470433B617B681B033A69134315
:104B9C003B617B6923F0A0037B61BB681B017A69D5
:104BAC0013437B61FB683A699A61FB687A691A6204
:104BBC0000BF1C37BD4680BC704780B485B000AFC9
:104BCC00786039607B689B68FB60FB6823F070033E
:104BDC00FB603A68FB68134343F00703FB607B6898
:104BEC00FA689A6000BF1437BD4680BC704780B429
:104BFC0087B000AFF860B9607A603B60FB689B6877
:104C0C007B617B6923F47F437B613B681A027B6881
:104C1C001A43BB6813437A6913437B61FB687A6957
:104C2C009A6000BF1C37BD4680BC704780B485B00D
:104C3C0000AF786039607B6893F83C30012B01D170
:104C4C00022346E07B68012283F83C207B68022229
:104C5C0083F83D207B681B685B68FB607B681B6886
:104C6C009B68BB60FB6823F07003FB603B681B68B0
:104C7C00FA681343FB607B681B68FA685A607B68B0
:104C8C001B68164A93420ED07B681B68B3F1804FA9
:104C9C0009D07B681B68124A934204D07B681B685E
:104CAC00104A93420CD1BB6823F08003BB603B6875
:104CBC005B68BA681343BB607B681B68BA689A6010
:104CCC007B68012283F83D207B68002283F83C201E
:104CDC00002318461437BD4680BC7047002C014099
:104CEC00000400400008004080B483B000AF78603E
:104CFC0000BF0C37BD4680BC704780B483B000AF9A
:104D0C00786000BF0C37BD4680BC7047014B1868FB
:104D1C00704700BF4400002070B500260C4D0D4CB0
:104D2C00641BA410A64209D100F06CFC00260A4DAD
:104D3C000A4C641BA410A64205D170BD55F8043B67
:104D4C0098470136EEE755F8043B98470136F2E7F1
:104D5C00E4570008E4570008E4570008E857000837
:104D6C00024B0146186800F05FB800BF44000020F9
:104D7C00024B0146186800F00BB800BF440000203D
:104D8C0003460244934200D1704703F8011BF9E734
:104D9C0038B50546002943D051F8043C0C1F002BB4
:104DAC00B8BFE41800F0CAF81E4A1368104633B9AD
:104DBC00636014602846BDE8384000F0C5B8A342D3
:104DCC000AD921686218934201BF1A685B685218AD
:104DDC00226063600460EDE71A465B680BB1A34286
:104DEC00FAD911685018A0420BD120680144501810
:104DFC0083421160DED118685B6801441160536016
:104E0C00D8E702D90C232B60D4E7206821188B42F9
:104E1C0001BF19685B680918216063605460C9E7B9
:104E2C0038BD00BF34010020F8B5CD1C25F00305BA
:104E3C0008350C2D38BF0C25002D064601DBA94288
:104E4C0003D90C2333600020F8BD00F077F821491A
:104E5C000A6814469CB9204F3B6823B9214630465A
:104E6C0000F03CF838602946304600F037F8431C17
:104E7C0023D10C233046336000F066F8E3E7236857
:104E8C005B1B17D40B2B03D923601C44256004E057
:104E9C006368A2420CBF0B605360304600F054F8BC
:104EAC0004F10B00231D20F00700C21ACCD01B1AF2
:104EBC00A350C9E722466468CCE7C41C24F0030461
:104ECC00A042E3D0211A304600F008F80130DDD1C1
:104EDC00CFE700BF340100203801002038B5002393
:104EEC00054D044608462B60FDF7EAFE431C02D133
:104EFC002B6803B1236038BD080200200EB46FF09C
:104F0C00004100B59CB01DAB029006900791049136
:104F1C000848094953F8042B0591006802A901932C
:104F2C0000F074F80022029B1A701CB05DF804EBC0
:104F3C0003B07047440000200802FFFF014800F056
:104F4C00FBBA00BF10020020014800F0F6BA00BF07
:104F5C00100200202DE9F0478E6882469E420C46D6
:104F6C0090461F4638D88A8912F4906F32D0256843
:104F7C0009690133A5EB010965694B4405EB45054E
:104F8C0005EBD5756D109D4238BF1D46530531D5C7
:104F9C002946FFF749FF064650B90C234FF0FF3066
:104FAC00CAF80030A38943F04003A381BDE8F08721
:104FBC004A46216900F0D0FAA38923F4906343F0A8
:104FCC008003A38126614E4426603E466561A5EBB5
:104FDC000905A560BE4200D93E46324641462068CE
:104FEC0000F0C8FAA36822689B1B32440020A3601F
:104FFC002260DBE72A4600F0D7FA06460028E1D10A
:10500C0050462169FFF7C4FEC7E700002DE9F04FB9
:10501C0098468B8907461B060D4614469DB00ED547
:10502C000B6963B94021FFF7FFFE2860286120B9A6
:10503C000C233B604FF0FF30D1E040236B61002329
:10504C00099320238DF8293030234FF00109CDF836
:10505C000C80DFF8A4818DF82A3023469A4613F889
:10506C00012B0AB1252AF9D1BAEB040B0BD05B4604
:10507C00224629463846FFF76DFF013000F0AA8022
:10508C00099A5A4409929AF80030002B00F0A28039
:10509C0000234FF0FF32CDE905230AF1010A0493F6
:1050AC0007938DF853301A935446052214F8011BBC
:1050BC00514800F043FA049AD8B9D00644BF2023D3
:1050CC008DF85330110744BF2B238DF853309AF8C9
:1050DC0000302A2B15D0544600204FF00A0C079AAA
:1050EC00214611F8013B303B092B4ED9B0B1079248
:1050FC0014E0A0EB080309FA03F31343A24604934C
:10510C00D2E7039B191D1B680391002BBBBF5B42AD
:10511C0042F0020207930793B8BF049223782E2B18
:10512C000CD163782A2B35D1039B02341A1D1B68D2
:10513C000392002BB8BF4FF0FF330593DFF8C8A0E4
:10514C0003225046217800F0F9F940B14023A0EB3E
:10515C000A0003FA00F0049B01340343049314F88F
:10516C00011B062225488DF8281000F0E7F90028CD
:10517C0038D0234B1BBB039B073323F007030833A7
:10518C000393099B3344099367E70C4601200CFBFE
:10519C000232A5E700234FF00A0C1946013405939F
:1051AC00204610F8012B303A092A03D9002BC5D020
:1051BC000591C3E7044601230CFB0121F0E703AB87
:1051CC0000932A4638460F4B04A9AFF30080421CCB
:1051DC000646D6D1AB895B063FF52CAF09981DB0BE
:1051EC00BDE8F08F03AB00932A463846054B04A963
:1051FC0000F07CF8EBE700BFAE570008B85700088A
:10520C0000000000614F0008B45700082DE9F0477A
:10521C00164699468A680B6907469342B8BF1346EF
:10522C00336091F843200C46DDF820800AB101333D
:10523C0033602368990642BF3368023333602568B4
:10524C0015F0060506D104F1190AE36832689B1AB9
:10525C00AB4228DC94F84320131E226818BF0123AC
:10526C0092062DD44946384604F14302C04701301A
:10527C0020D02368E56803F00603042B18BF002533
:10528C0032684FF00006A36808BFAD1A226908BF48
:10529C0025EAE5759342C4BF9B1AED181A34B54242
:1052AC001AD1002008E00123524649463846C0472F
:1052BC00013003D14FF0FF30BDE8F0870135C4E772
:1052CC003020E11881F843005A1C94F84510224410
:1052DC00023382F84310C5E701232246494638467B
:1052EC00C0470130E6D00136D9E700002DE9FF4771
:1052FC000C46277E9146782F80469A460C9904F1ED
:10530C00430207D8622F0AD8002F00F0D980582FFB
:10531C0000F0A48004F1420684F842703AE0A7F150
:10532C006303152BF6D801A050F823F09153000815
:10533C00A5530008215300082153000821530008ED
:10534C0021530008A55300082153000821530008DD
:10535C002153000821530008B3540008D55300080A
:10536C00955400082153000821530008D554000817
:10537C0021530008D553000821530008215300087D
:10538C009D5400080B6804F142061A1D1B680A6044
:10539C0084F842300123A4E0256808682E0600F149
:1053AC0004030AD505680B60002D03DA2D236D422A
:1053BC0084F843300A235E4819E015F0400F056865
:1053CC000B6018BF2DB2EFE70B682568181D08603D
:1053DC00280601D51D6802E06906FBD51D886F2FD4
:1053EC000CBF08230A235248002184F84310666836
:1053FC00002EA8BF2168A660A4BF21F00401216083
:10540C000DB9002E4DD01646B5FBF3F103FB115729
:10541C00C75D06F8017D2F46BB420D46F4D9082B1B
:10542C000BD12368DF0708D5236961689942DEBF79
:10543C00302306F8013C06F1FF36921B22614B46E5
:10544C0021464046CDF800A003AAFFF7DFFE01304D
:10545C004CD14FF0FF3004B0BDE8F087344884F8ED
:10546C0045700E68236856F8045B1F060E6014D551
:10547C00D90744BF43F0200323601DB9236823F0F0
:10548C00200323601023AFE7236843F0200323603D
:10549C007823284884F84530E3E75E0648BFADB270
:1054AC00E6E71646BBE70B6826681D1D60690D60B4
:1054BC0035061B6801D5186002E07106FBD5188013
:1054CC00002316462361BAE70B681A1D0A601E6892
:1054DC0000213046626800F031F808B1801B606032
:1054EC0063682361002384F84330A8E732464946B9
:1054FC0040462369D0470130ABD023689B0713D4B7
:10550C00E068039B9842B8BF1846A4E701233246D3
:10551C0049464046D04701309BD00135E36803999A
:10552C005B1AAB42F2DCEBE7002504F11906F5E758
:10553C00BF570008D057000870477047034610B596
:10554C00C9B202449342184601D1002003E004780A
:10555C0001338C42F6D110BD0A44914200F1FF3365
:10556C0000D1704710B511F8014B914203F8014F6F
:10557C00F9D110BD884210B501EB020402D9844266
:10558C00234607D8431EA14208D011F8012B03F87B
:10559C00012FF8E7014602448A4200D110BD13F8EE
:1055AC00014D02F8014DF7E7F8B5074614460E46D3
:1055BC0021B91146BDE8F840FFF736BC22B9FFF718
:1055CC00E7FB25462846F8BD00F014F8A0420FD2A0
:1055DC0021463846FFF728FC05460028F2D0314614
:1055EC002246FFF7B9FF31463846FFF7D1FBE9E712
:1055FC003546E7E751F8043C181F002BBCBF0B588D
:10560C00C0187047F8B500BFF8BC08BC9E46704780
:0C561C00F8B500BFF8BC08BC9E46704703
:105628002020200020494E49545F4D4F444500003A
:10563800282B2900282D2900205365742052312059
:105648005265642025730000205365742052312070
:1056580059656C2025730000205365742052312051
:1056680047726E2025730000205365742052322043
:10567800526564202573000020536574205232203F
:1056880059656C2025730000205365742052322020
:1056980047726E20257300003030303030303030A3
:1056A8003030000056616C75653A202564000000B2
:1056B80020522053796E63204572726F72202564E0
:1056C80073000000313A20536B69702C20323A2065
:1056D800466978205232000020472F592053796EAE
:1056E80063204572726F722025647300313A20532B
:1056F8006B69702C20323A2046697820475932006D
:105708004E6F7468696E6720657272004E6F7468B8
:10571800696E670056616C756520436F6E666972C5
:105728006D656400204D414E55414C5F4D4F4445D9
:105738000000000020524544313A20256400000052
:1057480020475245323A2025640000002059454C34
:10575800323A20256400000020475245313A20257E
:105768006400000020524544323A202564000000BD
:105778002059454C313A2025640000000000000003
:1057880000000000010203040607080900000000E9
:105798000102030402030405060708090A0B0C0D9D
:1057A8000E0F10100102232D302B2000686C4C00C6
:1057B8006566674546470030313233343536373809
:1057C8003941424344454600303132333435363767
:0C57D800383961626364656600000000FF
:0457E4003101000887
:0457E8000D010008A7
:1057EC0003000000010000000100000005000000A3
:1057FC00030000000300000006000000020000008F
:10580C000300000005000000030000000100000080
:10581C00010101000101010000127A0010000000DA
:10582C000100000048000020000000000000000003
:10583C00000000000000000000000000000000005C
:10584C00000000000000000000000000000000004C
:10585C00000000000000000000000000000000003C
:10586C00000000000000000000000000000000002C
:10587C00000000000000000000000000000000001C
:08588C00000000000000000014
:0400000508002D457D
:00000001FF
